{
  "_format": "hh-sol-artifact-1",
  "contractName": "SampleERC5006",
  "sourceName": "contracts/SampleERC5006.sol",
  "abi": [
    {
      "inputs": [],
      "stateMutability": "nonpayable",
      "type": "constructor"
    },
    {
      "anonymous": false,
      "inputs": [
        {
          "indexed": true,
          "internalType": "address",
          "name": "account",
          "type": "address"
        },
        {
          "indexed": true,
          "internalType": "address",
          "name": "operator",
          "type": "address"
        },
        {
          "indexed": false,
          "internalType": "bool",
          "name": "approved",
          "type": "bool"
        }
      ],
      "name": "ApprovalForAll",
      "type": "event"
    },
    {
      "anonymous": false,
      "inputs": [
        {
          "indexed": false,
          "internalType": "uint256",
          "name": "recordId",
          "type": "uint256"
        },
        {
          "indexed": false,
          "internalType": "uint256",
          "name": "tokenId",
          "type": "uint256"
        },
        {
          "indexed": false,
          "internalType": "uint64",
          "name": "amount",
          "type": "uint64"
        },
        {
          "indexed": false,
          "internalType": "address",
          "name": "owner",
          "type": "address"
        },
        {
          "indexed": false,
          "internalType": "address",
          "name": "user",
          "type": "address"
        },
        {
          "indexed": false,
          "internalType": "uint64",
          "name": "expiry",
          "type": "uint64"
        }
      ],
      "name": "CreateUserRecord",
      "type": "event"
    },
    {
      "anonymous": false,
      "inputs": [
        {
          "indexed": false,
          "internalType": "uint256",
          "name": "recordId",
          "type": "uint256"
        }
      ],
      "name": "DeleteUserRecord",
      "type": "event"
    },
    {
      "anonymous": false,
      "inputs": [
        {
          "indexed": true,
          "internalType": "address",
          "name": "previousOwner",
          "type": "address"
        },
        {
          "indexed": true,
          "internalType": "address",
          "name": "newOwner",
          "type": "address"
        }
      ],
      "name": "OwnershipTransferred",
      "type": "event"
    },
    {
      "anonymous": false,
      "inputs": [
        {
          "indexed": true,
          "internalType": "address",
          "name": "operator",
          "type": "address"
        },
        {
          "indexed": true,
          "internalType": "address",
          "name": "from",
          "type": "address"
        },
        {
          "indexed": true,
          "internalType": "address",
          "name": "to",
          "type": "address"
        },
        {
          "indexed": false,
          "internalType": "uint256[]",
          "name": "ids",
          "type": "uint256[]"
        },
        {
          "indexed": false,
          "internalType": "uint256[]",
          "name": "values",
          "type": "uint256[]"
        }
      ],
      "name": "TransferBatch",
      "type": "event"
    },
    {
      "anonymous": false,
      "inputs": [
        {
          "indexed": true,
          "internalType": "address",
          "name": "operator",
          "type": "address"
        },
        {
          "indexed": true,
          "internalType": "address",
          "name": "from",
          "type": "address"
        },
        {
          "indexed": true,
          "internalType": "address",
          "name": "to",
          "type": "address"
        },
        {
          "indexed": false,
          "internalType": "uint256",
          "name": "id",
          "type": "uint256"
        },
        {
          "indexed": false,
          "internalType": "uint256",
          "name": "value",
          "type": "uint256"
        }
      ],
      "name": "TransferSingle",
      "type": "event"
    },
    {
      "anonymous": false,
      "inputs": [
        {
          "indexed": false,
          "internalType": "string",
          "name": "value",
          "type": "string"
        },
        {
          "indexed": true,
          "internalType": "uint256",
          "name": "id",
          "type": "uint256"
        }
      ],
      "name": "URI",
      "type": "event"
    },
    {
      "inputs": [],
      "name": "_markedRecId",
      "outputs": [
        {
          "internalType": "uint256",
          "name": "",
          "type": "uint256"
        }
      ],
      "stateMutability": "view",
      "type": "function"
    },
    {
      "inputs": [
        {
          "internalType": "uint256",
          "name": "",
          "type": "uint256"
        }
      ],
      "name": "_markedTokenRecord",
      "outputs": [
        {
          "internalType": "uint256",
          "name": "tokenId",
          "type": "uint256"
        },
        {
          "internalType": "uint256",
          "name": "price",
          "type": "uint256"
        },
        {
          "internalType": "uint256",
          "name": "copies",
          "type": "uint256"
        },
        {
          "internalType": "uint256",
          "name": "startTime",
          "type": "uint256"
        },
        {
          "internalType": "uint256",
          "name": "endTime",
          "type": "uint256"
        },
        {
          "internalType": "address",
          "name": "lender",
          "type": "address"
        }
      ],
      "stateMutability": "view",
      "type": "function"
    },
    {
      "inputs": [],
      "name": "_onRentRecId",
      "outputs": [
        {
          "internalType": "uint256",
          "name": "",
          "type": "uint256"
        }
      ],
      "stateMutability": "view",
      "type": "function"
    },
    {
      "inputs": [
        {
          "internalType": "uint256",
          "name": "",
          "type": "uint256"
        }
      ],
      "name": "_onRentTokenRecord",
      "outputs": [
        {
          "internalType": "uint256",
          "name": "markedRecId",
          "type": "uint256"
        },
        {
          "internalType": "address",
          "name": "rentedTo",
          "type": "address"
        },
        {
          "internalType": "uint256",
          "name": "copiesBorrowed",
          "type": "uint256"
        },
        {
          "internalType": "uint256",
          "name": "recordId5006",
          "type": "uint256"
        }
      ],
      "stateMutability": "view",
      "type": "function"
    },
    {
      "inputs": [],
      "name": "_tokenId",
      "outputs": [
        {
          "internalType": "uint256",
          "name": "",
          "type": "uint256"
        }
      ],
      "stateMutability": "view",
      "type": "function"
    },
    {
      "inputs": [
        {
          "internalType": "uint256",
          "name": "",
          "type": "uint256"
        }
      ],
      "name": "_uri",
      "outputs": [
        {
          "internalType": "string",
          "name": "",
          "type": "string"
        }
      ],
      "stateMutability": "view",
      "type": "function"
    },
    {
      "inputs": [
        {
          "internalType": "address",
          "name": "account",
          "type": "address"
        },
        {
          "internalType": "uint256",
          "name": "id",
          "type": "uint256"
        }
      ],
      "name": "balanceOf",
      "outputs": [
        {
          "internalType": "uint256",
          "name": "",
          "type": "uint256"
        }
      ],
      "stateMutability": "view",
      "type": "function"
    },
    {
      "inputs": [
        {
          "internalType": "address[]",
          "name": "accounts",
          "type": "address[]"
        },
        {
          "internalType": "uint256[]",
          "name": "ids",
          "type": "uint256[]"
        }
      ],
      "name": "balanceOfBatch",
      "outputs": [
        {
          "internalType": "uint256[]",
          "name": "",
          "type": "uint256[]"
        }
      ],
      "stateMutability": "view",
      "type": "function"
    },
    {
      "inputs": [
        {
          "internalType": "uint256",
          "name": "markedRecId",
          "type": "uint256"
        },
        {
          "internalType": "uint256",
          "name": "copies",
          "type": "uint256"
        }
      ],
      "name": "borrowToken",
      "outputs": [],
      "stateMutability": "payable",
      "type": "function"
    },
    {
      "inputs": [
        {
          "internalType": "address",
          "name": "from",
          "type": "address"
        },
        {
          "internalType": "uint256",
          "name": "id",
          "type": "uint256"
        },
        {
          "internalType": "uint256",
          "name": "copies",
          "type": "uint256"
        }
      ],
      "name": "burn",
      "outputs": [],
      "stateMutability": "nonpayable",
      "type": "function"
    },
    {
      "inputs": [
        {
          "internalType": "address",
          "name": "owner",
          "type": "address"
        },
        {
          "internalType": "address",
          "name": "user",
          "type": "address"
        },
        {
          "internalType": "uint256",
          "name": "tokenId",
          "type": "uint256"
        },
        {
          "internalType": "uint64",
          "name": "amount",
          "type": "uint64"
        },
        {
          "internalType": "uint64",
          "name": "expiry",
          "type": "uint64"
        }
      ],
      "name": "createUserRecord",
      "outputs": [
        {
          "internalType": "uint256",
          "name": "",
          "type": "uint256"
        }
      ],
      "stateMutability": "nonpayable",
      "type": "function"
    },
    {
      "inputs": [
        {
          "internalType": "uint256",
          "name": "recordId",
          "type": "uint256"
        }
      ],
      "name": "deleteUserRecord",
      "outputs": [],
      "stateMutability": "nonpayable",
      "type": "function"
    },
    {
      "inputs": [
        {
          "internalType": "address",
          "name": "account",
          "type": "address"
        },
        {
          "internalType": "uint256",
          "name": "tokenId",
          "type": "uint256"
        }
      ],
      "name": "frozenBalanceOf",
      "outputs": [
        {
          "internalType": "uint256",
          "name": "",
          "type": "uint256"
        }
      ],
      "stateMutability": "view",
      "type": "function"
    },
    {
      "inputs": [],
      "name": "getBorrowedRecordId",
      "outputs": [
        {
          "internalType": "uint256[]",
          "name": "",
          "type": "uint256[]"
        }
      ],
      "stateMutability": "view",
      "type": "function"
    },
    {
      "inputs": [],
      "name": "getLenderAvailableTokens",
      "outputs": [
        {
          "internalType": "uint256[]",
          "name": "",
          "type": "uint256[]"
        }
      ],
      "stateMutability": "view",
      "type": "function"
    },
    {
      "inputs": [
        {
          "internalType": "uint256",
          "name": "token_id",
          "type": "uint256"
        }
      ],
      "name": "getLenderFrozenBalance",
      "outputs": [
        {
          "internalType": "uint256",
          "name": "",
          "type": "uint256"
        }
      ],
      "stateMutability": "view",
      "type": "function"
    },
    {
      "inputs": [
        {
          "internalType": "uint256",
          "name": "token_id",
          "type": "uint256"
        }
      ],
      "name": "getMarkedRecordIds",
      "outputs": [
        {
          "internalType": "uint256[]",
          "name": "",
          "type": "uint256[]"
        }
      ],
      "stateMutability": "view",
      "type": "function"
    },
    {
      "inputs": [
        {
          "internalType": "uint256",
          "name": "token_id",
          "type": "uint256"
        }
      ],
      "name": "getOnRentRecordIds",
      "outputs": [
        {
          "internalType": "uint256[]",
          "name": "",
          "type": "uint256[]"
        }
      ],
      "stateMutability": "view",
      "type": "function"
    },
    {
      "inputs": [
        {
          "internalType": "address",
          "name": "account",
          "type": "address"
        },
        {
          "internalType": "address",
          "name": "operator",
          "type": "address"
        }
      ],
      "name": "isApprovedForAll",
      "outputs": [
        {
          "internalType": "bool",
          "name": "",
          "type": "bool"
        }
      ],
      "stateMutability": "view",
      "type": "function"
    },
    {
      "inputs": [
        {
          "internalType": "address",
          "name": "owner",
          "type": "address"
        }
      ],
      "name": "isOwnerOrApproved",
      "outputs": [
        {
          "internalType": "bool",
          "name": "",
          "type": "bool"
        }
      ],
      "stateMutability": "view",
      "type": "function"
    },
    {
      "inputs": [
        {
          "internalType": "uint256",
          "name": "token_id",
          "type": "uint256"
        },
        {
          "internalType": "uint256",
          "name": "copies",
          "type": "uint256"
        },
        {
          "internalType": "uint256",
          "name": "price",
          "type": "uint256"
        },
        {
          "internalType": "uint256",
          "name": "startTime",
          "type": "uint256"
        },
        {
          "internalType": "uint256",
          "name": "endTime",
          "type": "uint256"
        }
      ],
      "name": "markForRent",
      "outputs": [],
      "stateMutability": "nonpayable",
      "type": "function"
    },
    {
      "inputs": [
        {
          "internalType": "string",
          "name": "uri",
          "type": "string"
        },
        {
          "internalType": "uint256",
          "name": "copies",
          "type": "uint256"
        }
      ],
      "name": "mintToken",
      "outputs": [],
      "stateMutability": "nonpayable",
      "type": "function"
    },
    {
      "inputs": [
        {
          "internalType": "address",
          "name": "operator",
          "type": "address"
        },
        {
          "internalType": "address",
          "name": "from",
          "type": "address"
        },
        {
          "internalType": "uint256[]",
          "name": "ids",
          "type": "uint256[]"
        },
        {
          "internalType": "uint256[]",
          "name": "values",
          "type": "uint256[]"
        },
        {
          "internalType": "bytes",
          "name": "data",
          "type": "bytes"
        }
      ],
      "name": "onERC1155BatchReceived",
      "outputs": [
        {
          "internalType": "bytes4",
          "name": "",
          "type": "bytes4"
        }
      ],
      "stateMutability": "pure",
      "type": "function"
    },
    {
      "inputs": [
        {
          "internalType": "address",
          "name": "operator",
          "type": "address"
        },
        {
          "internalType": "address",
          "name": "from",
          "type": "address"
        },
        {
          "internalType": "uint256",
          "name": "tokenId",
          "type": "uint256"
        },
        {
          "internalType": "uint256",
          "name": "value",
          "type": "uint256"
        },
        {
          "internalType": "bytes",
          "name": "data",
          "type": "bytes"
        }
      ],
      "name": "onERC1155Received",
      "outputs": [
        {
          "internalType": "bytes4",
          "name": "",
          "type": "bytes4"
        }
      ],
      "stateMutability": "pure",
      "type": "function"
    },
    {
      "inputs": [],
      "name": "owner",
      "outputs": [
        {
          "internalType": "address",
          "name": "",
          "type": "address"
        }
      ],
      "stateMutability": "view",
      "type": "function"
    },
    {
      "inputs": [
        {
          "internalType": "uint256",
          "name": "recId",
          "type": "uint256"
        }
      ],
      "name": "removeFromRent",
      "outputs": [],
      "stateMutability": "nonpayable",
      "type": "function"
    },
    {
      "inputs": [],
      "name": "renounceOwnership",
      "outputs": [],
      "stateMutability": "nonpayable",
      "type": "function"
    },
    {
      "inputs": [],
      "name": "returnAmount",
      "outputs": [],
      "stateMutability": "nonpayable",
      "type": "function"
    },
    {
      "inputs": [
        {
          "internalType": "address",
          "name": "from",
          "type": "address"
        },
        {
          "internalType": "address",
          "name": "to",
          "type": "address"
        },
        {
          "internalType": "uint256[]",
          "name": "ids",
          "type": "uint256[]"
        },
        {
          "internalType": "uint256[]",
          "name": "amounts",
          "type": "uint256[]"
        },
        {
          "internalType": "bytes",
          "name": "data",
          "type": "bytes"
        }
      ],
      "name": "safeBatchTransferFrom",
      "outputs": [],
      "stateMutability": "nonpayable",
      "type": "function"
    },
    {
      "inputs": [
        {
          "internalType": "address",
          "name": "from",
          "type": "address"
        },
        {
          "internalType": "address",
          "name": "to",
          "type": "address"
        },
        {
          "internalType": "uint256",
          "name": "id",
          "type": "uint256"
        },
        {
          "internalType": "uint256",
          "name": "amount",
          "type": "uint256"
        },
        {
          "internalType": "bytes",
          "name": "data",
          "type": "bytes"
        }
      ],
      "name": "safeTransferFrom",
      "outputs": [],
      "stateMutability": "nonpayable",
      "type": "function"
    },
    {
      "inputs": [
        {
          "internalType": "address",
          "name": "operator",
          "type": "address"
        },
        {
          "internalType": "bool",
          "name": "approved",
          "type": "bool"
        }
      ],
      "name": "setApprovalForAll",
      "outputs": [],
      "stateMutability": "nonpayable",
      "type": "function"
    },
    {
      "inputs": [
        {
          "internalType": "bytes4",
          "name": "interfaceId",
          "type": "bytes4"
        }
      ],
      "name": "supportsInterface",
      "outputs": [
        {
          "internalType": "bool",
          "name": "",
          "type": "bool"
        }
      ],
      "stateMutability": "view",
      "type": "function"
    },
    {
      "inputs": [
        {
          "internalType": "address",
          "name": "newOwner",
          "type": "address"
        }
      ],
      "name": "transferOwnership",
      "outputs": [],
      "stateMutability": "nonpayable",
      "type": "function"
    },
    {
      "inputs": [
        {
          "internalType": "uint256",
          "name": "",
          "type": "uint256"
        }
      ],
      "name": "uri",
      "outputs": [
        {
          "internalType": "string",
          "name": "",
          "type": "string"
        }
      ],
      "stateMutability": "view",
      "type": "function"
    },
    {
      "inputs": [
        {
          "internalType": "address",
          "name": "account",
          "type": "address"
        },
        {
          "internalType": "uint256",
          "name": "tokenId",
          "type": "uint256"
        }
      ],
      "name": "usableBalanceOf",
      "outputs": [
        {
          "internalType": "uint256",
          "name": "amount",
          "type": "uint256"
        }
      ],
      "stateMutability": "view",
      "type": "function"
    },
    {
      "inputs": [
        {
          "internalType": "uint256",
          "name": "recordId",
          "type": "uint256"
        }
      ],
      "name": "userRecordOf",
      "outputs": [
        {
          "components": [
            {
              "internalType": "uint256",
              "name": "tokenId",
              "type": "uint256"
            },
            {
              "internalType": "address",
              "name": "owner",
              "type": "address"
            },
            {
              "internalType": "uint64",
              "name": "amount",
              "type": "uint64"
            },
            {
              "internalType": "address",
              "name": "user",
              "type": "address"
            },
            {
              "internalType": "uint64",
              "name": "expiry",
              "type": "uint64"
            }
          ],
          "internalType": "struct IERC5006.UserRecord",
          "name": "",
          "type": "tuple"
        }
      ],
      "stateMutability": "view",
      "type": "function"
    },
    {
      "inputs": [],
      "name": "validateLendedTokens",
      "outputs": [
        {
          "internalType": "uint256",
          "name": "",
          "type": "uint256"
        }
      ],
      "stateMutability": "nonpayable",
      "type": "function"
    }
  ],
  "bytecode": "0x60806040523480156200001157600080fd5b50604080516020810190915260008152600a816200002f8162000057565b50600755506200003f3362000069565b600980546001600160a01b031916301790556200022c565b600262000065828262000160565b5050565b600880546001600160a01b038381166001600160a01b0319831681179093556040519116919082907f8be0079c531659141344cd1fd0a4f28419497f9722a3daafe3b4186f6b6457e090600090a35050565b634e487b7160e01b600052604160045260246000fd5b600181811c90821680620000e657607f821691505b6020821081036200010757634e487b7160e01b600052602260045260246000fd5b50919050565b601f8211156200015b57600081815260208120601f850160051c81016020861015620001365750805b601f850160051c820191505b81811015620001575782815560010162000142565b5050505b505050565b81516001600160401b038111156200017c576200017c620000bb565b62000194816200018d8454620000d1565b846200010d565b602080601f831160018114620001cc5760008415620001b35750858301515b600019600386901b1c1916600185901b17855562000157565b600085815260208120601f198616915b82811015620001fd57888601518255948401946001909101908401620001dc565b50858210156200021c5787850151600019600388901b60f8161c191681555b5050505050600190811b01905550565b61449b806200023c6000396000f3fe6080604052600436106102195760003560e01c80638da5cb5b11610123578063e6cfb63c116100ab578063f242432a1161006f578063f242432a146107a2578063f2fde38b146107c2578063f35eeaef146107e2578063f5298aca146107f7578063f5b3f4241461081757600080fd5b8063e6cfb63c14610671578063e985e9c514610691578063ed86eef3146106da578063f0af245a146106fa578063f23a6e611461077557600080fd5b8063bc197c81116100f2578063bc197c81146105b4578063c046372c146105fc578063cfd44f351461061c578063d05d280214610631578063def2cc561461065157600080fd5b80638da5cb5b1461053657806397d6c5f31461055e578063a22cb46514610574578063b6487cbc1461059457600080fd5b80634b8c23a4116101a6578063535c0ce311610175578063535c0ce3146104ac5780635c9efd00146104cc578063715018a6146104e1578063883d1d5f146104f65780638abcba641461051657600080fd5b80634b8c23a4146103a25780634c8d9952146104315780634e1273f4146104475780634fcad1011461047457600080fd5b80630ca14a70116101ed5780630ca14a70146102ab5780630e89341c1461031f578063248225141461034c5780632eb2c2d61461036257806337516f7c1461038257600080fd5b8062fdd58e1461021e57806301ffc9a71461025157806308a746fa1461028157806308ec592714610296575b600080fd5b34801561022a57600080fd5b5061023e6102393660046137ba565b610837565b6040519081526020015b60405180910390f35b34801561025d57600080fd5b5061027161026c3660046137fa565b6108d0565b6040519015158152602001610248565b34801561028d57600080fd5b5061023e610904565b6102a96102a4366004613817565b610e06565b005b3480156102b757600080fd5b506102f76102c6366004613839565b600f60205260009081526040902080546001820154600283015460039093015491926001600160a01b039091169184565b604080519485526001600160a01b039093166020850152918301526060820152608001610248565b34801561032b57600080fd5b5061033f61033a366004613839565b6113bb565b604051610248919061389f565b34801561035857600080fd5b5061023e600a5481565b34801561036e57600080fd5b506102a961037d366004613a05565b61144f565b34801561038e57600080fd5b506102a961039d366004613839565b61149b565b3480156103ae57600080fd5b506103fb6103bd366004613839565b600e6020526000908152604090208054600182015460028301546003840154600485015460059095015493949293919290916001600160a01b031686565b60408051968752602087019590955293850192909252606084015260808301526001600160a01b031660a082015260c001610248565b34801561043d57600080fd5b5061023e600b5481565b34801561045357600080fd5b50610467610462366004613aae565b6115fb565b6040516102489190613bb3565b34801561048057600080fd5b5061023e61048f366004613839565b336000908152601260209081526040808320938352929052205490565b3480156104b857600080fd5b5061023e6104c73660046137ba565b611724565b3480156104d857600080fd5b5061046761174b565b3480156104ed57600080fd5b506102a961176b565b34801561050257600080fd5b5061023e610511366004613bdd565b61177f565b34801561052257600080fd5b506102a9610531366004613839565b611ad5565b34801561054257600080fd5b506008546040516001600160a01b039091168152602001610248565b34801561056a57600080fd5b5061023e600c5481565b34801561058057600080fd5b506102a961058f366004613c3b565b611cf5565b3480156105a057600080fd5b506104676105af366004613839565b611d04565b3480156105c057600080fd5b506105e36105cf366004613d03565b63bc197c8160e01b98975050505050505050565b6040516001600160e01b03199091168152602001610248565b34801561060857600080fd5b506102a9610617366004613dbd565b611d6e565b34801561062857600080fd5b50610467611dc0565b34801561063d57600080fd5b5061046761064c366004613839565b611e21565b34801561065d57600080fd5b5061023e61066c3660046137ba565b611e8a565b34801561067d57600080fd5b506102a961068c366004613e15565b611f8b565b34801561069d57600080fd5b506102716106ac366004613e50565b6001600160a01b03918216600090815260016020908152604080832093909416825291909152205460ff1690565b3480156106e657600080fd5b5061033f6106f5366004613839565b612549565b34801561070657600080fd5b5061071a610715366004613839565b6125e3565b60408051825181526020808401516001600160a01b0390811691830191909152838301516001600160401b0390811693830193909352606080850151909116908201526080928301519091169181019190915260a001610248565b34801561078157600080fd5b506105e3610790366004613e83565b63f23a6e6160e01b9695505050505050565b3480156107ae57600080fd5b506102a96107bd366004613efa565b612679565b3480156107ce57600080fd5b506102a96107dd366004613f5e565b6126be565b3480156107ee57600080fd5b506102a9612734565b34801561080357600080fd5b506102a9610812366004613f79565b612760565b34801561082357600080fd5b50610271610832366004613f5e565b612770565b60006001600160a01b0383166108a75760405162461bcd60e51b815260206004820152602a60248201527f455243313135353a2061646472657373207a65726f206973206e6f742061207660448201526930b634b21037bbb732b960b11b60648201526084015b60405180910390fd5b506000818152602081815260408083206001600160a01b03861684529091529020545b92915050565b60006001600160e01b0319821663309b65b360e21b14806108f557506108f5826127db565b806108ca57506108ca8261282b565b336000908152601360205260408120819061091e90612850565b90506000805b8251811015610dff5760005b336000908152601160205260408120855190919086908590811061095657610956613fac565b6020026020010151815260200190815260200160002080549050811015610dec5733600090815260116020526040812085516109ef91600f9184919082908a90899081106109a6576109a6613fac565b6020026020010151815260200190815260200160002085815481106109cd576109cd613fac565b90600052602060002001548152602001908152602001600020600301546125e3565b60208101519091506001600160a01b031633148015610a1a57504281608001516001600160401b0316105b15610dd8573360009081526011602052604081208651610a839290889087908110610a4757610a47613fac565b602002602001015181526020019081526020016000208381548110610a6e57610a6e613fac565b90600052602060002001548260600151612864565b6040808201516020808401516001600160a01b03166000908152601282528381208551825290915291822080546001600160401b03909216929091610ac9908490613fd8565b909155505060208101518151610adf9190612a14565b3360009081526011602052604081208651909190879086908110610b0557610b05613fac565b6020026020010151815260200190815260200160002080549050600103610ba1573360009081526011602052604081208651600f91839182908a9089908110610b5057610b50613fac565b602002602001015181526020019081526020016000208581548110610b7757610b77613fac565b90600052602060002001548152602001908152602001600020600001549050610b9f81612a60565b505b3360009081526011602052604081208651600f9291908290899088908110610bcb57610bcb613fac565b602002602001015181526020019081526020016000208481548110610bf257610bf2613fac565b6000918252602080832090910154835282810193909352604091820181208181556001810180546001600160a01b031916905560028101829055600301819055338152601190925281208651909190879086908110610c5357610c53613fac565b60200260200101518152602001908152602001600020600160116000336001600160a01b03166001600160a01b031681526020019081526020016000206000888781518110610ca457610ca4613fac565b6020026020010151815260200190815260200160002080549050610cc89190613fd8565b81548110610cd857610cd8613fac565b906000526020600020015460116000336001600160a01b03166001600160a01b031681526020019081526020016000206000878681518110610d1c57610d1c613fac565b602002602001015181526020019081526020016000208381548110610d4357610d43613fac565b906000526020600020018190555060116000336001600160a01b03166001600160a01b031681526020019081526020016000206000868581518110610d8a57610d8a613fac565b60200260200101518152602001908152602001600020805480610daf57610daf613fef565b600190038181906000526020600020016000905590558380610dd090614005565b945050610de6565b610de360018361401e565b91505b50610930565b5080610df781614005565b915050610924565b5092915050565b60008111610e865760405162461bcd60e51b815260206004820152604160248201527f53616d706c65353030363a20436f7069657320796f752077616e7420746f206260448201527f6f72726f772073686f756c642062652067726561746572207468616e207a65726064820152606f60f81b608482015260a40161089e565b6000828152600e60205260409020600501546001600160a01b0316610eed5760405162461bcd60e51b815260206004820152601d60248201527f53616d706c65353030363a20496e76616c6964205265636f7264204964000000604482015260640161089e565b6000828152600e6020526040902060020154610f565760405162461bcd60e51b815260206004820152602260248201527f53616d706c65353030363a20416c6c20636f7069657320616c7261647920736f6044820152611b1960f21b606482015260840161089e565b6000828152600e6020526040902060020154811115610fd05760405162461bcd60e51b815260206004820152603060248201527f53616d706c65353030363a205265636f726420646f6e74206861766520656e6f60448201526f75676820746f6b656e20636f7069657360801b606482015260840161089e565b6000828152600e6020526040902060010154610fed908290614036565b341461103b5760405162461bcd60e51b815260206004820152601e60248201527f53616d706c65353030363a20496e73756666696369656e742070726963650000604482015260640161089e565b6000828152600e60205260409020600501546001600160a01b031633036110b05760405162461bcd60e51b8152602060048201526024808201527f53616d706c65353030363a2043616e27742062757920796f7572206f776e207460448201526337b5b2b760e11b606482015260840161089e565b6000828152600e60205260409020600301544210156111285760405162461bcd60e51b815260206004820152602e60248201527f53616d706c65353030363a205265636f7264277320737461727474696d65206860448201526d185cc81393d50814915050d2115160921b606482015260840161089e565b6000828152600e6020526040902060040154421061119e5760405162461bcd60e51b815260206004820152602d60248201527f53616d706c65353030363a205265636f7264277320656e6474696d652068617360448201526c081899595b88195e1c1a5c9959609a1b606482015260840161089e565b6009546000838152600e602052604080822060058101548154600492830154935163883d1d5f60e01b81526001600160a01b039283169381019390935233602484015260448301526001600160401b03808716606484015290921660848201529192169063883d1d5f9060a4016020604051808303816000875af115801561122a573d6000803e3d6000fd5b505050506040513d601f19601f8201168201806040525081019061124e9190614055565b60408051608080820183528682523360208084018281528486018981526060808701898152600c80546000908152600f87528a812099518a5594516001808b0180546001600160a01b0319166001600160a01b0393841617905594516002808c0191909155925160039a8b015596855260148652898520905481548086018355918652868620909101558c8452600e855292889020885160c081018a52815481529281015494830194909452918301549681019690965293810154938501939093526004830154918401919091526005909101541660a0820152909150611336908490612aa1565b6000838152600e602052604081206002018054849290611357908490613fd8565b90915550506000838152600e6020908152604080832060058101546001600160a01b03168452601183528184209054845282528220600c80548254600181018455928552928420909101919091558054916113b183614005565b9190505550505050565b6060600280546113ca9061406e565b80601f01602080910402602001604051908101604052809291908181526020018280546113f69061406e565b80156114435780601f1061141857610100808354040283529160200191611443565b820191906000526020600020905b81548152906001019060200180831161142657829003601f168201915b50505050509050919050565b6001600160a01b03851633148061146b575061146b85336106ac565b6114875760405162461bcd60e51b815260040161089e906140a8565b6114948585858585612c12565b5050505050565b600081815260046020526040902060018101546114c0906001600160a01b0316612770565b6114c957600080fd5b600181015481546040805160208101909152600081526115089230926001600160a01b038216929091600160a01b90046001600160401b031690612def565b6001810154815460009081526003602090815260408083206001600160a01b038516845290915281208054600160a01b9093046001600160401b031692909190611553908490613fd8565b90915550508054600090815260056020908152604080832060028501546001600160a01b03168452909152902061158a9083612f19565b506000828152600460205260408082209182556001820180546001600160e01b031990811690915560029092018054909216909155517fe5e4cc148925690191c27bf527786e1ffbc70eb2e0e1efc9cafc6429b1ee777a906115ef9084815260200190565b60405180910390a15050565b606081518351146116605760405162461bcd60e51b815260206004820152602960248201527f455243313135353a206163636f756e747320616e6420696473206c656e677468604482015268040dad2e6dac2e8c6d60bb1b606482015260840161089e565b600083516001600160401b0381111561167b5761167b6138b2565b6040519080825280602002602001820160405280156116a4578160200160208202803683370190505b50905060005b845181101561171c576116ef8582815181106116c8576116c8613fac565b60200260200101518583815181106116e2576116e2613fac565b6020026020010151610837565b82828151811061170157611701613fac565b602090810291909101015261171581614005565b90506116aa565b509392505050565b60009081526003602090815260408083206001600160a01b03949094168352929052205490565b33600090815260136020526040902060609061176690612850565b905090565b611773612f25565b61177d6000612f7f565b565b600061178a86612770565b61179357600080fd5b6001600160a01b0385166117e95760405162461bcd60e51b815260206004820152601f60248201527f757365722063616e6e6f7420626520746865207a65726f206164647265737300604482015260640161089e565b6000836001600160401b0316116118425760405162461bcd60e51b815260206004820152601d60248201527f616d6f756e74206d7573742062652067726561746572207468616e2030000000604482015260640161089e565b42826001600160401b0316116118a85760405162461bcd60e51b815260206004820152602560248201527f657870697279206d7573742061667465722074686520626c6f636b2074696d6560448201526407374616d760dc1b606482015260840161089e565b60075460008581526005602090815260408083206001600160a01b038a16845290915290206118d690612fd1565b106119235760405162461bcd60e51b815260206004820152601d60248201527f757365722063616e6e6f742068617665206d6f7265207265636f726473000000604482015260640161089e565b611948863086866001600160401b031660405180602001604052806000815250612def565b60008481526003602090815260408083206001600160a01b038a168452909152812080546001600160401b038616929061198390849061401e565b90915550506006805490600061199883614005565b90915550506040805160a0810182528581526001600160a01b0388811660208084019182526001600160401b038881168587019081528b8516606087018181528a841660808901908152600680546000908152600488528b81209a518b55975160018b0180549651918b166001600160e01b031997881617600160a01b928916830217905592516002909a01805492519a9099169190941617979093169092029590951790935592548882526005845284822092825291909252919020611a5e91612fdb565b5060065460408051918252602082018690526001600160401b03858116838301526001600160a01b03898116606085015288166080840152841660a0830152517faa05e03d03c60cd1d2749f96e50df9c0f2910357e2213b7fbb8c838c9e207d079181900360c00190a15060065495945050505050565b6000818152600e60205260409020600501546001600160a01b0316611b3c5760405162461bcd60e51b815260206004820152601d60248201527f53616d706c65353030363a20496e76616c6964205265636f7264204964000000604482015260640161089e565b6000818152600e60205260409020600501546001600160a01b03163314611bb65760405162461bcd60e51b815260206004820152602860248201527f53616d706c65353030363a204e6f7420616e2076616c6964206f776e6572206f60448201526719881c9958dbdc9960c21b606482015260840161089e565b336000908152601160209081526040808320848452600e835281842054845290915290205415611c415760405162461bcd60e51b815260206004820152603060248201527f53616d706c65353030363a205265636f7264206973206f6e2072656e7420436160448201526f1b9d081c995b5bdd99481c9958dbdc9960821b606482015260840161089e565b6000818152600e6020908152604091829020825160c0810184528154815260018201549281019290925260028101549282019290925260038201546060820152600482015460808201526005909101546001600160a01b031660a0820152611caa908290612aa1565b6000818152600e602090815260408083206002810154338552601284528285209154855292528220805491929091611ce3908490613fd8565b90915550611cf2905081612a60565b50565b611d00338383612fe7565b5050565b33600090815260106020908152604080832084845282529182902080548351818402810184019094528084526060939283018282801561144357602002820191906000526020600020905b815481526020019060010190808311611d4f5750505050509050919050565b600a546000908152600d60205260409020611d89838261413c565b50611da733600a5483604051806020016040528060008152506130c7565b600a8054906000611db783614005565b91905055505050565b33600090815260146020908152604091829020805483518184028101840190945280845260609392830182828015611e1757602002820191906000526020600020905b815481526020019060010190808311611e03575b5050505050905090565b3360009081526011602090815260408083208484528252918290208054835181840281018401909452808452606093928301828280156114435760200282019190600052602060002090815481526020019060010190808311611d4f5750505050509050919050565b60008181526005602090815260408083206001600160a01b038616845290915281208190611eb790612850565b905060005b8151811015611f835760046000838381518110611edb57611edb613fac565b6020026020010151815260200190815260200160002060020160149054906101000a90046001600160401b03166001600160401b03164211611f715760046000838381518110611f2d57611f2d613fac565b6020026020010151815260200190815260200160002060010160149054906101000a90046001600160401b03166001600160401b031683611f6e919061401e565b92505b80611f7b81614005565b915050611ebc565b505092915050565b3385856000611f9a8484610837565b6001600160a01b038516600090815260126020908152604080832087845290915281205491925081900361203657818311156120315760405162461bcd60e51b815260206004820152603060248201527f53616d706c65353030363a204c656e64657220646f6e74206861766520656e6f60448201526f75676820746f6b656e20636f7069657360801b606482015260840161089e565b6121bd565b60008111801561204d575061204b8585611724565b155b1561210e5780821015612069576120648282613fd8565b612073565b6120738183613fd8565b8311156120315760405162461bcd60e51b815260206004820152605a60248201527f53616d706c65353030363a204c656e64657220646f6e74206861766520656e6f60448201527f75676820746f6b656e20636f706965732e2052656d6f766520736f6d65206d6160648201527f726b6564207265636f72647320616e642074727920616761696e000000000000608482015260a40161089e565b600081118015612127575060006121258686611724565b115b156121bd57818311156121bd5760405162461bcd60e51b815260206004820152605260248201527f53616d706c65353030363a204c656e64657220646f6e74206861766520656e6f60448201527f75676820746f6b656e20636f706965732e2052656465656d20736f6d6520726560648201527131b7b9321030b732103a393c9030b3b0b4b760711b608482015260a40161089e565b600088116122335760405162461bcd60e51b815260206004820152603760248201527f53616d706c65353030363a2052656e74696e672070726963652073686f756c6460448201527f20626520626520676561746572207468616e207a65726f000000000000000000606482015260840161089e565b6000871180156122435750600086115b61229d5760405162461bcd60e51b815260206004820152602560248201527f53616d706c65353030363a2054696d657374616d70732063616e6e6f74206265604482015264207a65726f60d81b606482015260840161089e565b8587106123085760405162461bcd60e51b815260206004820152603360248201527f53616d706c65353030363a2053746172742074696d652073686f756c64206265604482015272206c657373207468616e20656e642074696d6560681b606482015260840161089e565b42861161237d5760405162461bcd60e51b815260206004820152603860248201527f53616d706c65353030363a20456e642074696d652073686f756c64206265206760448201527f726561746572207468616e2063757272656e742074696d650000000000000000606482015260840161089e565b600089116123d75760405162461bcd60e51b815260206004820152602160248201527f53616d706c65353030363a20436f706965732063616e6e6f74206265207a65726044820152606f60f81b606482015260840161089e565b6040518060c001604052808b81526020018981526020018a8152602001888152602001878152602001336001600160a01b0316815250600e6000600b548152602001908152602001600020600082015181600001556020820151816001015560408201518160020155606082015181600301556080820151816004015560a08201518160050160006101000a8154816001600160a01b0302191690836001600160a01b0316021790555090505060106000336001600160a01b03166001600160a01b0316815260200190815260200160002060008b8152602001908152602001600020600b5490806001815401808255809150506001900390600052602060002001600090919091909150556124ed338b6131db565b3360009081526012602090815260408083208d8452909152812080548b929061251790849061401e565b909155506125289050306001611cf5565b600b805490600061253883614005565b919050555050505050505050505050565b600d60205260009081526040902080546125629061406e565b80601f016020809104026020016040519081016040528092919081815260200182805461258e9061406e565b80156125db5780601f106125b0576101008083540402835291602001916125db565b820191906000526020600020905b8154815290600101906020018083116125be57829003601f168201915b505050505081565b6040805160a08101825260008082526020820181905291810182905260608101829052608081019190915250600090815260046020908152604091829020825160a0810184528154815260018201546001600160a01b03808216948301949094526001600160401b03600160a01b9182900481169583019590955260029092015492831660608201529104909116608082015290565b6001600160a01b038516331480612695575061269585336106ac565b6126b15760405162461bcd60e51b815260040161089e906140a8565b6114948585858585612def565b6126c6612f25565b6001600160a01b03811661272b5760405162461bcd60e51b815260206004820152602660248201527f4f776e61626c653a206e6577206f776e657220697320746865207a65726f206160448201526564647265737360d01b606482015260840161089e565b611cf281612f7f565b60405133904780156108fc02916000818181858888f19350505050158015611cf2573d6000803e3d6000fd5b61276b838383613225565b505050565b60006001600160a01b03821633148061278e575061278e82336106ac565b6127d35760405162461bcd60e51b81526020600482015260166024820152751bdb9b1e481bdddb995c881bdc88185c1c1c9bdd995960521b604482015260640161089e565b506001919050565b60006001600160e01b03198216636cdb3d1360e11b148061280c57506001600160e01b031982166303a24d0760e21b145b806108ca57506301ffc9a760e01b6001600160e01b03198316146108ca565b60006001600160e01b03198216630271189760e51b14806108ca57506108ca826127db565b6060600061285d836133a1565b9392505050565b60005b6001600160a01b03821660009081526014602052604090205481101561276b576001600160a01b03821660009081526014602052604090208054849190839081106128b4576128b4613fac565b906000526020600020015403612a02576009546000848152600f602052604090819020600301549051630dd45bdf60e21b81526001600160a01b03909216916337516f7c916129099160040190815260200190565b600060405180830381600087803b15801561292357600080fd5b505af1158015612937573d6000803e3d6000fd5b505050506001600160a01b0382166000908152601460205260409020805461296190600190613fd8565b8154811061297157612971613fac565b906000526020600020015460146000846001600160a01b03166001600160a01b0316815260200190815260200160002082815481106129b2576129b2613fac565b60009182526020808320909101929092556001600160a01b03841681526014909152604090208054806129e7576129e7613fef565b60019003818190600052602060002001600090559055505050565b80612a0c81614005565b915050612867565b6001600160a01b03821660009081526012602090815260408083208484529091528120549003611d00576001600160a01b038216600090815260136020526040902061276b9082612f19565b6000908152600e60205260408120818155600181018290556002810182905560038101829055600481019190915560050180546001600160a01b0319169055565b60005b60a08201516001600160a01b031660009081526010602090815260408083208551845290915290205481101561276b5760a08201516001600160a01b03166000908152601060209081526040808320855184529091529020805484919083908110612b1157612b11613fac565b906000526020600020015403612c005760a0820180516001600160a01b039081166000908152601060208181526040808420885185528252808420955190941683529081528282208651835290522054612b6d90600190613fd8565b81548110612b7d57612b7d613fac565b600091825260208083209091015460a08501516001600160a01b03168352601082526040808420865185529092529120805483908110612bbf57612bbf613fac565b600091825260208083209091019290925560a08401516001600160a01b0316815260108252604080822085518352909252208054806129e7576129e7613fef565b80612c0a81614005565b915050612aa4565b8151835114612c745760405162461bcd60e51b815260206004820152602860248201527f455243313135353a2069647320616e6420616d6f756e7473206c656e677468206044820152670dad2e6dac2e8c6d60c31b606482015260840161089e565b6001600160a01b038416612c9a5760405162461bcd60e51b815260040161089e906141fb565b3360005b8451811015612d81576000858281518110612cbb57612cbb613fac565b602002602001015190506000858381518110612cd957612cd9613fac565b602090810291909101810151600084815280835260408082206001600160a01b038e168352909352919091205490915081811015612d295760405162461bcd60e51b815260040161089e90614240565b6000838152602081815260408083206001600160a01b038e8116855292528083208585039055908b16825281208054849290612d6690849061401e565b9250508190555050505080612d7a90614005565b9050612c9e565b50846001600160a01b0316866001600160a01b0316826001600160a01b03167f4a39dc06d4c0dbc64b70af90fd698a233a518aa5d07e595d983b8c0526c8f7fb8787604051612dd192919061428a565b60405180910390a4612de78187878787876133fb565b505050505050565b6001600160a01b038416612e155760405162461bcd60e51b815260040161089e906141fb565b336000612e2185613556565b90506000612e2e85613556565b90506000868152602081815260408083206001600160a01b038c16845290915290205485811015612e715760405162461bcd60e51b815260040161089e90614240565b6000878152602081815260408083206001600160a01b038d8116855292528083208985039055908a16825281208054889290612eae90849061401e565b909155505060408051888152602081018890526001600160a01b03808b16928c821692918816917fc3d58168c5ae7397731d063d5bbf3d657854427343f4c083240f7aacaa2d0f62910160405180910390a4612f0e848a8a8a8a8a6135a1565b505050505050505050565b600061285d838361365c565b6008546001600160a01b0316331461177d5760405162461bcd60e51b815260206004820181905260248201527f4f776e61626c653a2063616c6c6572206973206e6f7420746865206f776e6572604482015260640161089e565b600880546001600160a01b038381166001600160a01b0319831681179093556040519116919082907f8be0079c531659141344cd1fd0a4f28419497f9722a3daafe3b4186f6b6457e090600090a35050565b60006108ca825490565b600061285d838361374f565b816001600160a01b0316836001600160a01b03160361305a5760405162461bcd60e51b815260206004820152602960248201527f455243313135353a2073657474696e6720617070726f76616c20737461747573604482015268103337b91039b2b63360b91b606482015260840161089e565b6001600160a01b03838116600081815260016020908152604080832094871680845294825291829020805460ff191686151590811790915591519182527f17307eab39ab6107e8899845ad3d59bd9653f200f220920489ca2b5937696c31910160405180910390a3505050565b6001600160a01b0384166131275760405162461bcd60e51b815260206004820152602160248201527f455243313135353a206d696e7420746f20746865207a65726f206164647265736044820152607360f81b606482015260840161089e565b33600061313385613556565b9050600061314085613556565b90506000868152602081815260408083206001600160a01b038b1684529091528120805487929061317290849061401e565b909155505060408051878152602081018790526001600160a01b03808a1692600092918716917fc3d58168c5ae7397731d063d5bbf3d657854427343f4c083240f7aacaa2d0f62910160405180910390a46131d2836000898989896135a1565b50505050505050565b6001600160a01b0382166000908152601260209081526040808320848452909152902054611d00576001600160a01b038216600090815260136020526040902061276b9082612fdb565b6001600160a01b0383166132875760405162461bcd60e51b815260206004820152602360248201527f455243313135353a206275726e2066726f6d20746865207a65726f206164647260448201526265737360e81b606482015260840161089e565b33600061329384613556565b905060006132a084613556565b60408051602080820183526000918290528882528181528282206001600160a01b038b16835290522054909150848110156133295760405162461bcd60e51b8152602060048201526024808201527f455243313135353a206275726e20616d6f756e7420657863656564732062616c604482015263616e636560e01b606482015260840161089e565b6000868152602081815260408083206001600160a01b038b81168086529184528285208a8703905582518b81529384018a90529092908816917fc3d58168c5ae7397731d063d5bbf3d657854427343f4c083240f7aacaa2d0f62910160405180910390a46040805160208101909152600090526131d2565b6060816000018054806020026020016040519081016040528092919081815260200182805480156114435760200282019190600052602060002090815481526020019060010190808311611d4f5750505050509050919050565b6001600160a01b0384163b15612de75760405163bc197c8160e01b81526001600160a01b0385169063bc197c819061343f90899089908890889088906004016142b8565b6020604051808303816000875af192505050801561347a575060408051601f3d908101601f1916820190925261347791810190614316565b60015b61352657613486614333565b806308c379a0036134bf575061349a61434f565b806134a557506134c1565b8060405162461bcd60e51b815260040161089e919061389f565b505b60405162461bcd60e51b815260206004820152603460248201527f455243313135353a207472616e7366657220746f206e6f6e2d455243313135356044820152732932b1b2b4bb32b91034b6b83632b6b2b73a32b960611b606482015260840161089e565b6001600160e01b0319811663bc197c8160e01b146131d25760405162461bcd60e51b815260040161089e906143d8565b6040805160018082528183019092526060916000919060208083019080368337019050509050828160008151811061359057613590613fac565b602090810291909101015292915050565b6001600160a01b0384163b15612de75760405163f23a6e6160e01b81526001600160a01b0385169063f23a6e61906135e59089908990889088908890600401614420565b6020604051808303816000875af1925050508015613620575060408051601f3d908101601f1916820190925261361d91810190614316565b60015b61362c57613486614333565b6001600160e01b0319811663f23a6e6160e01b146131d25760405162461bcd60e51b815260040161089e906143d8565b60008181526001830160205260408120548015613745576000613680600183613fd8565b855490915060009061369490600190613fd8565b90508181146136f95760008660000182815481106136b4576136b4613fac565b90600052602060002001549050808760000184815481106136d7576136d7613fac565b6000918252602080832090910192909255918252600188019052604090208390555b855486908061370a5761370a613fef565b6001900381819060005260206000200160009055905585600101600086815260200190815260200160002060009055600193505050506108ca565b60009150506108ca565b6000818152600183016020526040812054613796575081546001818101845560008481526020808220909301849055845484825282860190935260409020919091556108ca565b5060006108ca565b80356001600160a01b03811681146137b557600080fd5b919050565b600080604083850312156137cd57600080fd5b6137d68361379e565b946020939093013593505050565b6001600160e01b031981168114611cf257600080fd5b60006020828403121561380c57600080fd5b813561285d816137e4565b6000806040838503121561382a57600080fd5b50508035926020909101359150565b60006020828403121561384b57600080fd5b5035919050565b6000815180845260005b818110156138785760208185018101518683018201520161385c565b8181111561388a576000602083870101525b50601f01601f19169290920160200192915050565b60208152600061285d6020830184613852565b634e487b7160e01b600052604160045260246000fd5b601f8201601f191681016001600160401b03811182821017156138ed576138ed6138b2565b6040525050565b60006001600160401b0382111561390d5761390d6138b2565b5060051b60200190565b600082601f83011261392857600080fd5b81356020613935826138f4565b60405161394282826138c8565b83815260059390931b850182019282810191508684111561396257600080fd5b8286015b8481101561397d5780358352918301918301613966565b509695505050505050565b60006001600160401b038311156139a1576139a16138b2565b6040516139b8601f8501601f1916602001826138c8565b8091508381528484840111156139cd57600080fd5b83836020830137600060208583010152509392505050565b600082601f8301126139f657600080fd5b61285d83833560208501613988565b600080600080600060a08688031215613a1d57600080fd5b613a268661379e565b9450613a346020870161379e565b935060408601356001600160401b0380821115613a5057600080fd5b613a5c89838a01613917565b94506060880135915080821115613a7257600080fd5b613a7e89838a01613917565b93506080880135915080821115613a9457600080fd5b50613aa1888289016139e5565b9150509295509295909350565b60008060408385031215613ac157600080fd5b82356001600160401b0380821115613ad857600080fd5b818501915085601f830112613aec57600080fd5b81356020613af9826138f4565b604051613b0682826138c8565b83815260059390931b8501820192828101915089841115613b2657600080fd5b948201945b83861015613b4b57613b3c8661379e565b82529482019490820190613b2b565b96505086013592505080821115613b6157600080fd5b50613b6e85828601613917565b9150509250929050565b600081518084526020808501945080840160005b83811015613ba857815187529582019590820190600101613b8c565b509495945050505050565b60208152600061285d6020830184613b78565b80356001600160401b03811681146137b557600080fd5b600080600080600060a08688031215613bf557600080fd5b613bfe8661379e565b9450613c0c6020870161379e565b935060408601359250613c2160608701613bc6565b9150613c2f60808701613bc6565b90509295509295909350565b60008060408385031215613c4e57600080fd5b613c578361379e565b915060208301358015158114613c6c57600080fd5b809150509250929050565b60008083601f840112613c8957600080fd5b5081356001600160401b03811115613ca057600080fd5b6020830191508360208260051b8501011115613cbb57600080fd5b9250929050565b60008083601f840112613cd457600080fd5b5081356001600160401b03811115613ceb57600080fd5b602083019150836020828501011115613cbb57600080fd5b60008060008060008060008060a0898b031215613d1f57600080fd5b613d288961379e565b9750613d3660208a0161379e565b965060408901356001600160401b0380821115613d5257600080fd5b613d5e8c838d01613c77565b909850965060608b0135915080821115613d7757600080fd5b613d838c838d01613c77565b909650945060808b0135915080821115613d9c57600080fd5b50613da98b828c01613cc2565b999c989b5096995094979396929594505050565b60008060408385031215613dd057600080fd5b82356001600160401b03811115613de657600080fd5b8301601f81018513613df757600080fd5b613e0685823560208401613988565b95602094909401359450505050565b600080600080600060a08688031215613e2d57600080fd5b505083359560208501359550604085013594606081013594506080013592509050565b60008060408385031215613e6357600080fd5b613e6c8361379e565b9150613e7a6020840161379e565b90509250929050565b60008060008060008060a08789031215613e9c57600080fd5b613ea58761379e565b9550613eb36020880161379e565b9450604087013593506060870135925060808701356001600160401b03811115613edc57600080fd5b613ee889828a01613cc2565b979a9699509497509295939492505050565b600080600080600060a08688031215613f1257600080fd5b613f1b8661379e565b9450613f296020870161379e565b9350604086013592506060860135915060808601356001600160401b03811115613f5257600080fd5b613aa1888289016139e5565b600060208284031215613f7057600080fd5b61285d8261379e565b600080600060608486031215613f8e57600080fd5b613f978461379e565b95602085013595506040909401359392505050565b634e487b7160e01b600052603260045260246000fd5b634e487b7160e01b600052601160045260246000fd5b600082821015613fea57613fea613fc2565b500390565b634e487b7160e01b600052603160045260246000fd5b60006001820161401757614017613fc2565b5060010190565b6000821982111561403157614031613fc2565b500190565b600081600019048311821515161561405057614050613fc2565b500290565b60006020828403121561406757600080fd5b5051919050565b600181811c9082168061408257607f821691505b6020821081036140a257634e487b7160e01b600052602260045260246000fd5b50919050565b6020808252602e908201527f455243313135353a2063616c6c6572206973206e6f7420746f6b656e206f776e60408201526d195c881bdc88185c1c1c9bdd995960921b606082015260800190565b601f82111561276b57600081815260208120601f850160051c8101602086101561411d5750805b601f850160051c820191505b81811015612de757828155600101614129565b81516001600160401b03811115614155576141556138b2565b61416981614163845461406e565b846140f6565b602080601f83116001811461419e57600084156141865750858301515b600019600386901b1c1916600185901b178555612de7565b600085815260208120601f198616915b828110156141cd578886015182559484019460019091019084016141ae565b50858210156141eb5787850151600019600388901b60f8161c191681555b5050505050600190811b01905550565b60208082526025908201527f455243313135353a207472616e7366657220746f20746865207a65726f206164604082015264647265737360d81b606082015260800190565b6020808252602a908201527f455243313135353a20696e73756666696369656e742062616c616e636520666f60408201526939103a3930b739b332b960b11b606082015260800190565b60408152600061429d6040830185613b78565b82810360208401526142af8185613b78565b95945050505050565b6001600160a01b0386811682528516602082015260a0604082018190526000906142e490830186613b78565b82810360608401526142f68186613b78565b9050828103608084015261430a8185613852565b98975050505050505050565b60006020828403121561432857600080fd5b815161285d816137e4565b600060033d111561434c5760046000803e5060005160e01c5b90565b600060443d101561435d5790565b6040516003193d81016004833e81513d6001600160401b03816024840111818411171561438c57505050505090565b82850191508151818111156143a45750505050505090565b843d87010160208285010111156143be5750505050505090565b6143cd602082860101876138c8565b509095945050505050565b60208082526028908201527f455243313135353a204552433131353552656365697665722072656a656374656040820152676420746f6b656e7360c01b606082015260800190565b6001600160a01b03868116825285166020820152604081018490526060810183905260a06080820181905260009061445a90830184613852565b97965050505050505056fea264697066735822122014361237131227e96c62f648126dc9ff06eb9855d290a9a122e7dd03b12587be64736f6c634300080f0033",
  "linkReferences": {},
  "deployedLinkReferences": {}
}