{
  "_format": "hh-sol-artifact-1",
  "contractName": "SampleERC5006",
  "sourceName": "contracts/SampleERC5006.sol",
  "abi": [
    {
      "inputs": [],
      "stateMutability": "nonpayable",
      "type": "constructor"
    },
    {
      "anonymous": false,
      "inputs": [
        {
          "indexed": true,
          "internalType": "address",
          "name": "account",
          "type": "address"
        },
        {
          "indexed": true,
          "internalType": "address",
          "name": "operator",
          "type": "address"
        },
        {
          "indexed": false,
          "internalType": "bool",
          "name": "approved",
          "type": "bool"
        }
      ],
      "name": "ApprovalForAll",
      "type": "event"
    },
    {
      "anonymous": false,
      "inputs": [
        {
          "indexed": false,
          "internalType": "uint256",
          "name": "recordId",
          "type": "uint256"
        },
        {
          "indexed": false,
          "internalType": "uint256",
          "name": "tokenId",
          "type": "uint256"
        },
        {
          "indexed": false,
          "internalType": "uint64",
          "name": "amount",
          "type": "uint64"
        },
        {
          "indexed": false,
          "internalType": "address",
          "name": "owner",
          "type": "address"
        },
        {
          "indexed": false,
          "internalType": "address",
          "name": "user",
          "type": "address"
        },
        {
          "indexed": false,
          "internalType": "uint64",
          "name": "expiry",
          "type": "uint64"
        }
      ],
      "name": "CreateUserRecord",
      "type": "event"
    },
    {
      "anonymous": false,
      "inputs": [
        {
          "indexed": false,
          "internalType": "uint256",
          "name": "recordId",
          "type": "uint256"
        }
      ],
      "name": "DeleteUserRecord",
      "type": "event"
    },
    {
      "anonymous": false,
      "inputs": [
        {
          "indexed": true,
          "internalType": "address",
          "name": "previousOwner",
          "type": "address"
        },
        {
          "indexed": true,
          "internalType": "address",
          "name": "newOwner",
          "type": "address"
        }
      ],
      "name": "OwnershipTransferred",
      "type": "event"
    },
    {
      "anonymous": false,
      "inputs": [
        {
          "indexed": true,
          "internalType": "address",
          "name": "operator",
          "type": "address"
        },
        {
          "indexed": true,
          "internalType": "address",
          "name": "from",
          "type": "address"
        },
        {
          "indexed": true,
          "internalType": "address",
          "name": "to",
          "type": "address"
        },
        {
          "indexed": false,
          "internalType": "uint256[]",
          "name": "ids",
          "type": "uint256[]"
        },
        {
          "indexed": false,
          "internalType": "uint256[]",
          "name": "values",
          "type": "uint256[]"
        }
      ],
      "name": "TransferBatch",
      "type": "event"
    },
    {
      "anonymous": false,
      "inputs": [
        {
          "indexed": true,
          "internalType": "address",
          "name": "operator",
          "type": "address"
        },
        {
          "indexed": true,
          "internalType": "address",
          "name": "from",
          "type": "address"
        },
        {
          "indexed": true,
          "internalType": "address",
          "name": "to",
          "type": "address"
        },
        {
          "indexed": false,
          "internalType": "uint256",
          "name": "id",
          "type": "uint256"
        },
        {
          "indexed": false,
          "internalType": "uint256",
          "name": "value",
          "type": "uint256"
        }
      ],
      "name": "TransferSingle",
      "type": "event"
    },
    {
      "anonymous": false,
      "inputs": [
        {
          "indexed": false,
          "internalType": "string",
          "name": "value",
          "type": "string"
        },
        {
          "indexed": true,
          "internalType": "uint256",
          "name": "id",
          "type": "uint256"
        }
      ],
      "name": "URI",
      "type": "event"
    },
    {
      "inputs": [],
      "name": "_recId",
      "outputs": [
        {
          "internalType": "uint256",
          "name": "",
          "type": "uint256"
        }
      ],
      "stateMutability": "view",
      "type": "function"
    },
    {
      "inputs": [],
      "name": "_tokenId",
      "outputs": [
        {
          "internalType": "uint256",
          "name": "",
          "type": "uint256"
        }
      ],
      "stateMutability": "view",
      "type": "function"
    },
    {
      "inputs": [
        {
          "internalType": "uint256",
          "name": "",
          "type": "uint256"
        }
      ],
      "name": "_tokenRecords",
      "outputs": [
        {
          "internalType": "uint256",
          "name": "tokenId",
          "type": "uint256"
        },
        {
          "internalType": "uint256",
          "name": "price",
          "type": "uint256"
        },
        {
          "internalType": "uint256",
          "name": "copies",
          "type": "uint256"
        },
        {
          "internalType": "uint256",
          "name": "startTime",
          "type": "uint256"
        },
        {
          "internalType": "uint256",
          "name": "endTime",
          "type": "uint256"
        },
        {
          "internalType": "address",
          "name": "lender",
          "type": "address"
        },
        {
          "internalType": "address",
          "name": "rentedTo",
          "type": "address"
        },
        {
          "internalType": "uint256",
          "name": "recordId5006",
          "type": "uint256"
        }
      ],
      "stateMutability": "view",
      "type": "function"
    },
    {
      "inputs": [
        {
          "internalType": "uint256",
          "name": "",
          "type": "uint256"
        }
      ],
      "name": "_uri",
      "outputs": [
        {
          "internalType": "string",
          "name": "",
          "type": "string"
        }
      ],
      "stateMutability": "view",
      "type": "function"
    },
    {
      "inputs": [
        {
          "internalType": "address",
          "name": "account",
          "type": "address"
        },
        {
          "internalType": "uint256",
          "name": "id",
          "type": "uint256"
        }
      ],
      "name": "balanceOf",
      "outputs": [
        {
          "internalType": "uint256",
          "name": "",
          "type": "uint256"
        }
      ],
      "stateMutability": "view",
      "type": "function"
    },
    {
      "inputs": [
        {
          "internalType": "address[]",
          "name": "accounts",
          "type": "address[]"
        },
        {
          "internalType": "uint256[]",
          "name": "ids",
          "type": "uint256[]"
        }
      ],
      "name": "balanceOfBatch",
      "outputs": [
        {
          "internalType": "uint256[]",
          "name": "",
          "type": "uint256[]"
        }
      ],
      "stateMutability": "view",
      "type": "function"
    },
    {
      "inputs": [
        {
          "internalType": "uint256",
          "name": "recId",
          "type": "uint256"
        }
      ],
      "name": "borrowToken",
      "outputs": [],
      "stateMutability": "payable",
      "type": "function"
    },
    {
      "inputs": [
        {
          "internalType": "address",
          "name": "from",
          "type": "address"
        },
        {
          "internalType": "uint256",
          "name": "id",
          "type": "uint256"
        },
        {
          "internalType": "uint256",
          "name": "copies",
          "type": "uint256"
        }
      ],
      "name": "burn",
      "outputs": [],
      "stateMutability": "nonpayable",
      "type": "function"
    },
    {
      "inputs": [
        {
          "internalType": "address",
          "name": "owner",
          "type": "address"
        },
        {
          "internalType": "address",
          "name": "user",
          "type": "address"
        },
        {
          "internalType": "uint256",
          "name": "tokenId",
          "type": "uint256"
        },
        {
          "internalType": "uint64",
          "name": "amount",
          "type": "uint64"
        },
        {
          "internalType": "uint64",
          "name": "expiry",
          "type": "uint64"
        }
      ],
      "name": "createUserRecord",
      "outputs": [
        {
          "internalType": "uint256",
          "name": "",
          "type": "uint256"
        }
      ],
      "stateMutability": "nonpayable",
      "type": "function"
    },
    {
      "inputs": [
        {
          "internalType": "uint256",
          "name": "recordId",
          "type": "uint256"
        }
      ],
      "name": "deleteUserRecord",
      "outputs": [],
      "stateMutability": "nonpayable",
      "type": "function"
    },
    {
      "inputs": [
        {
          "internalType": "address",
          "name": "account",
          "type": "address"
        },
        {
          "internalType": "uint256",
          "name": "tokenId",
          "type": "uint256"
        }
      ],
      "name": "frozenBalanceOf",
      "outputs": [
        {
          "internalType": "uint256",
          "name": "",
          "type": "uint256"
        }
      ],
      "stateMutability": "view",
      "type": "function"
    },
    {
      "inputs": [],
      "name": "getBorrowedRecordId",
      "outputs": [
        {
          "internalType": "uint256[]",
          "name": "",
          "type": "uint256[]"
        }
      ],
      "stateMutability": "view",
      "type": "function"
    },
    {
      "inputs": [],
      "name": "getLenderAvailableTokens",
      "outputs": [
        {
          "internalType": "uint256[]",
          "name": "",
          "type": "uint256[]"
        }
      ],
      "stateMutability": "view",
      "type": "function"
    },
    {
      "inputs": [
        {
          "internalType": "uint256",
          "name": "token_id",
          "type": "uint256"
        }
      ],
      "name": "getLenderFrozenBalance",
      "outputs": [
        {
          "internalType": "uint256",
          "name": "",
          "type": "uint256"
        }
      ],
      "stateMutability": "view",
      "type": "function"
    },
    {
      "inputs": [
        {
          "internalType": "uint256",
          "name": "token_id",
          "type": "uint256"
        }
      ],
      "name": "getMarkedRecordIds",
      "outputs": [
        {
          "internalType": "uint256[]",
          "name": "",
          "type": "uint256[]"
        }
      ],
      "stateMutability": "view",
      "type": "function"
    },
    {
      "inputs": [
        {
          "internalType": "uint256",
          "name": "token_id",
          "type": "uint256"
        }
      ],
      "name": "getOnRentRecordIds",
      "outputs": [
        {
          "internalType": "uint256[]",
          "name": "",
          "type": "uint256[]"
        }
      ],
      "stateMutability": "view",
      "type": "function"
    },
    {
      "inputs": [
        {
          "internalType": "address",
          "name": "account",
          "type": "address"
        },
        {
          "internalType": "address",
          "name": "operator",
          "type": "address"
        }
      ],
      "name": "isApprovedForAll",
      "outputs": [
        {
          "internalType": "bool",
          "name": "",
          "type": "bool"
        }
      ],
      "stateMutability": "view",
      "type": "function"
    },
    {
      "inputs": [
        {
          "internalType": "address",
          "name": "owner",
          "type": "address"
        }
      ],
      "name": "isOwnerOrApproved",
      "outputs": [
        {
          "internalType": "bool",
          "name": "",
          "type": "bool"
        }
      ],
      "stateMutability": "view",
      "type": "function"
    },
    {
      "inputs": [
        {
          "internalType": "uint256",
          "name": "token_id",
          "type": "uint256"
        },
        {
          "internalType": "uint256",
          "name": "copies",
          "type": "uint256"
        },
        {
          "internalType": "uint256",
          "name": "price",
          "type": "uint256"
        },
        {
          "internalType": "uint256",
          "name": "startTime",
          "type": "uint256"
        },
        {
          "internalType": "uint256",
          "name": "endTime",
          "type": "uint256"
        }
      ],
      "name": "markForRent",
      "outputs": [],
      "stateMutability": "nonpayable",
      "type": "function"
    },
    {
      "inputs": [
        {
          "internalType": "string",
          "name": "uri",
          "type": "string"
        },
        {
          "internalType": "uint256",
          "name": "copies",
          "type": "uint256"
        }
      ],
      "name": "mintToken",
      "outputs": [],
      "stateMutability": "nonpayable",
      "type": "function"
    },
    {
      "inputs": [
        {
          "internalType": "address",
          "name": "operator",
          "type": "address"
        },
        {
          "internalType": "address",
          "name": "from",
          "type": "address"
        },
        {
          "internalType": "uint256[]",
          "name": "ids",
          "type": "uint256[]"
        },
        {
          "internalType": "uint256[]",
          "name": "values",
          "type": "uint256[]"
        },
        {
          "internalType": "bytes",
          "name": "data",
          "type": "bytes"
        }
      ],
      "name": "onERC1155BatchReceived",
      "outputs": [
        {
          "internalType": "bytes4",
          "name": "",
          "type": "bytes4"
        }
      ],
      "stateMutability": "pure",
      "type": "function"
    },
    {
      "inputs": [
        {
          "internalType": "address",
          "name": "operator",
          "type": "address"
        },
        {
          "internalType": "address",
          "name": "from",
          "type": "address"
        },
        {
          "internalType": "uint256",
          "name": "tokenId",
          "type": "uint256"
        },
        {
          "internalType": "uint256",
          "name": "value",
          "type": "uint256"
        },
        {
          "internalType": "bytes",
          "name": "data",
          "type": "bytes"
        }
      ],
      "name": "onERC1155Received",
      "outputs": [
        {
          "internalType": "bytes4",
          "name": "",
          "type": "bytes4"
        }
      ],
      "stateMutability": "pure",
      "type": "function"
    },
    {
      "inputs": [],
      "name": "owner",
      "outputs": [
        {
          "internalType": "address",
          "name": "",
          "type": "address"
        }
      ],
      "stateMutability": "view",
      "type": "function"
    },
    {
      "inputs": [
        {
          "internalType": "uint256",
          "name": "recId",
          "type": "uint256"
        }
      ],
      "name": "removeFromRent",
      "outputs": [],
      "stateMutability": "nonpayable",
      "type": "function"
    },
    {
      "inputs": [],
      "name": "renounceOwnership",
      "outputs": [],
      "stateMutability": "nonpayable",
      "type": "function"
    },
    {
      "inputs": [],
      "name": "returnAmount",
      "outputs": [],
      "stateMutability": "nonpayable",
      "type": "function"
    },
    {
      "inputs": [
        {
          "internalType": "address",
          "name": "from",
          "type": "address"
        },
        {
          "internalType": "address",
          "name": "to",
          "type": "address"
        },
        {
          "internalType": "uint256[]",
          "name": "ids",
          "type": "uint256[]"
        },
        {
          "internalType": "uint256[]",
          "name": "amounts",
          "type": "uint256[]"
        },
        {
          "internalType": "bytes",
          "name": "data",
          "type": "bytes"
        }
      ],
      "name": "safeBatchTransferFrom",
      "outputs": [],
      "stateMutability": "nonpayable",
      "type": "function"
    },
    {
      "inputs": [
        {
          "internalType": "address",
          "name": "from",
          "type": "address"
        },
        {
          "internalType": "address",
          "name": "to",
          "type": "address"
        },
        {
          "internalType": "uint256",
          "name": "id",
          "type": "uint256"
        },
        {
          "internalType": "uint256",
          "name": "amount",
          "type": "uint256"
        },
        {
          "internalType": "bytes",
          "name": "data",
          "type": "bytes"
        }
      ],
      "name": "safeTransferFrom",
      "outputs": [],
      "stateMutability": "nonpayable",
      "type": "function"
    },
    {
      "inputs": [
        {
          "internalType": "address",
          "name": "operator",
          "type": "address"
        },
        {
          "internalType": "bool",
          "name": "approved",
          "type": "bool"
        }
      ],
      "name": "setApprovalForAll",
      "outputs": [],
      "stateMutability": "nonpayable",
      "type": "function"
    },
    {
      "inputs": [
        {
          "internalType": "bytes4",
          "name": "interfaceId",
          "type": "bytes4"
        }
      ],
      "name": "supportsInterface",
      "outputs": [
        {
          "internalType": "bool",
          "name": "",
          "type": "bool"
        }
      ],
      "stateMutability": "view",
      "type": "function"
    },
    {
      "inputs": [
        {
          "internalType": "address",
          "name": "newOwner",
          "type": "address"
        }
      ],
      "name": "transferOwnership",
      "outputs": [],
      "stateMutability": "nonpayable",
      "type": "function"
    },
    {
      "inputs": [
        {
          "internalType": "uint256",
          "name": "",
          "type": "uint256"
        }
      ],
      "name": "uri",
      "outputs": [
        {
          "internalType": "string",
          "name": "",
          "type": "string"
        }
      ],
      "stateMutability": "view",
      "type": "function"
    },
    {
      "inputs": [
        {
          "internalType": "address",
          "name": "account",
          "type": "address"
        },
        {
          "internalType": "uint256",
          "name": "tokenId",
          "type": "uint256"
        }
      ],
      "name": "usableBalanceOf",
      "outputs": [
        {
          "internalType": "uint256",
          "name": "amount",
          "type": "uint256"
        }
      ],
      "stateMutability": "view",
      "type": "function"
    },
    {
      "inputs": [
        {
          "internalType": "uint256",
          "name": "recordId",
          "type": "uint256"
        }
      ],
      "name": "userRecordOf",
      "outputs": [
        {
          "components": [
            {
              "internalType": "uint256",
              "name": "tokenId",
              "type": "uint256"
            },
            {
              "internalType": "address",
              "name": "owner",
              "type": "address"
            },
            {
              "internalType": "uint64",
              "name": "amount",
              "type": "uint64"
            },
            {
              "internalType": "address",
              "name": "user",
              "type": "address"
            },
            {
              "internalType": "uint64",
              "name": "expiry",
              "type": "uint64"
            }
          ],
          "internalType": "struct IERC5006.UserRecord",
          "name": "",
          "type": "tuple"
        }
      ],
      "stateMutability": "view",
      "type": "function"
    },
    {
      "inputs": [],
      "name": "validateLendedTokens",
      "outputs": [
        {
          "internalType": "uint256",
          "name": "",
          "type": "uint256"
        }
      ],
      "stateMutability": "nonpayable",
      "type": "function"
    }
  ],
  "bytecode": "0x60806040523480156200001157600080fd5b50604080516020810190915260008152600a816200002f8162000057565b50600755506200003f3362000069565b600980546001600160a01b031916301790556200022c565b600262000065828262000160565b5050565b600880546001600160a01b038381166001600160a01b0319831681179093556040519116919082907f8be0079c531659141344cd1fd0a4f28419497f9722a3daafe3b4186f6b6457e090600090a35050565b634e487b7160e01b600052604160045260246000fd5b600181811c90821680620000e657607f821691505b6020821081036200010757634e487b7160e01b600052602260045260246000fd5b50919050565b601f8211156200015b57600081815260208120601f850160051c81016020861015620001365750805b601f850160051c820191505b81811015620001575782815560010162000142565b5050505b505050565b81516001600160401b038111156200017c576200017c620000bb565b62000194816200018d8454620000d1565b846200010d565b602080601f831160018114620001cc5760008415620001b35750858301515b600019600386901b1c1916600185901b17855562000157565b600085815260208120601f198616915b82811015620001fd57888601518255948401946001909101908401620001dc565b50858210156200021c5787850151600019600388901b60f8161c191681555b5050505050600190811b01905550565b614204806200023c6000396000f3fe6080604052600436106102035760003560e01c80638da5cb5b11610118578063e985e9c5116100a0578063f242432a1161006f578063f242432a14610725578063f2fde38b14610745578063f35eeaef14610765578063f5298aca1461077a578063f5b3f4241461079a57600080fd5b8063e985e9c514610614578063ed86eef31461065d578063f0af245a1461067d578063f23a6e61146106f857600080fd5b8063c046372c116100e7578063c046372c1461057f578063cfd44f351461059f578063d05d2802146105b4578063def2cc56146105d4578063e6cfb63c146105f457600080fd5b80638da5cb5b146104cf578063a22cb465146104f7578063b6487cbc14610517578063bc197c811461053757600080fd5b80634a2e88f71161019b5780635c9efd001161016a5780635c9efd001461044f578063715018a6146104645780637634f87314610479578063883d1d5f1461048f5780638abcba64146104af57600080fd5b80634a2e88f7146103185780634e1273f4146103ca5780634fcad101146103f7578063535c0ce31461042f57600080fd5b80630e89341c116101d75780630e89341c1461029557806324822514146102c25780632eb2c2d6146102d857806337516f7c146102f857600080fd5b8062fdd58e1461020857806301ffc9a71461023b57806308a746fa1461026b578063092f577614610280575b600080fd5b34801561021457600080fd5b50610228610223366004613564565b6107ba565b6040519081526020015b60405180910390f35b34801561024757600080fd5b5061025b6102563660046135a4565b610853565b6040519015158152602001610232565b34801561027757600080fd5b50610228610887565b61029361028e3660046135c1565b610c9a565b005b3480156102a157600080fd5b506102b56102b03660046135c1565b6110f7565b6040516102329190613627565b3480156102ce57600080fd5b50610228600a5481565b3480156102e457600080fd5b506102936102f336600461378d565b61118b565b34801561030457600080fd5b506102936103133660046135c1565b6111d7565b34801561032457600080fd5b506103836103333660046135c1565b600d6020526000908152604090208054600182015460028301546003840154600485015460058601546006870154600790970154959694959394929391926001600160a01b039182169291169088565b60408051988952602089019790975295870194909452606086019290925260808501526001600160a01b0390811660a08501521660c083015260e082015261010001610232565b3480156103d657600080fd5b506103ea6103e5366004613836565b611337565b604051610232919061393b565b34801561040357600080fd5b506102286104123660046135c1565b336000908152601060209081526040808320938352929052205490565b34801561043b57600080fd5b5061022861044a366004613564565b611460565b34801561045b57600080fd5b506103ea611487565b34801561047057600080fd5b506102936114a7565b34801561048557600080fd5b50610228600b5481565b34801561049b57600080fd5b506102286104aa366004613965565b6114bb565b3480156104bb57600080fd5b506102936104ca3660046135c1565b611811565b3480156104db57600080fd5b506008546040516001600160a01b039091168152602001610232565b34801561050357600080fd5b506102936105123660046139c3565b611a3e565b34801561052357600080fd5b506103ea6105323660046135c1565b611a4d565b34801561054357600080fd5b50610566610552366004613a8b565b63bc197c8160e01b98975050505050505050565b6040516001600160e01b03199091168152602001610232565b34801561058b57600080fd5b5061029361059a366004613b45565b611ab7565b3480156105ab57600080fd5b506103ea611b09565b3480156105c057600080fd5b506103ea6105cf3660046135c1565b611b6a565b3480156105e057600080fd5b506102286105ef366004613564565b611bd3565b34801561060057600080fd5b5061029361060f366004613b9d565b611cd4565b34801561062057600080fd5b5061025b61062f366004613bd8565b6001600160a01b03918216600090815260016020908152604080832093909416825291909152205460ff1690565b34801561066957600080fd5b506102b56106783660046135c1565b6122e1565b34801561068957600080fd5b5061069d6106983660046135c1565b61237b565b60408051825181526020808401516001600160a01b0390811691830191909152838301516001600160401b0390811693830193909352606080850151909116908201526080928301519091169181019190915260a001610232565b34801561070457600080fd5b50610566610713366004613c0b565b63f23a6e6160e01b9695505050505050565b34801561073157600080fd5b50610293610740366004613c82565b612411565b34801561075157600080fd5b50610293610760366004613ce6565b612456565b34801561077157600080fd5b506102936124cc565b34801561078657600080fd5b50610293610795366004613d01565b6124f8565b3480156107a657600080fd5b5061025b6107b5366004613ce6565b612508565b60006001600160a01b03831661082a5760405162461bcd60e51b815260206004820152602a60248201527f455243313135353a2061646472657373207a65726f206973206e6f742061207660448201526930b634b21037bbb732b960b11b60648201526084015b60405180910390fd5b506000818152602081815260408083206001600160a01b03861684529091529020545b92915050565b60006001600160e01b0319821663309b65b360e21b1480610878575061087882612573565b8061084d575061084d826125c3565b33600090815260116020526040812081906108a1906125e8565b90506000805b8251811015610c935760005b336000908152600f6020526040812085519091908690859081106108d9576108d9613d34565b6020026020010151815260200190815260200160002080549050811015610c8057336000908152600f60205260408120855161097291600d9184919082908a908990811061092957610929613d34565b60200260200101518152602001908152602001600020858154811061095057610950613d34565b906000526020600020015481526020019081526020016000206007015461237b565b60208101519091506001600160a01b03163314801561099d57504281608001516001600160401b0316105b15610c6c57336000908152600f602052604081208651610a0692908890879081106109ca576109ca613d34565b6020026020010151815260200190815260200160002083815481106109f1576109f1613d34565b906000526020600020015482606001516125fc565b336000908152600f602052604081208651610a659290889087908110610a2e57610a2e613d34565b602002602001015181526020019081526020016000208381548110610a5557610a55613d34565b90600052602060002001546127ac565b6040808201516020808401516001600160a01b03166000908152601082528381208551825290915291822080546001600160401b03909216929091610aab908490613d60565b909155505060208101518151610ac191906127ff565b336000908152600f602052604081208651909190879086908110610ae757610ae7613d34565b602002602001015181526020019081526020016000206001600f6000336001600160a01b03166001600160a01b031681526020019081526020016000206000888781518110610b3857610b38613d34565b6020026020010151815260200190815260200160002080549050610b5c9190613d60565b81548110610b6c57610b6c613d34565b9060005260206000200154600f6000336001600160a01b03166001600160a01b031681526020019081526020016000206000878681518110610bb057610bb0613d34565b602002602001015181526020019081526020016000208381548110610bd757610bd7613d34565b9060005260206000200181905550600f6000336001600160a01b03166001600160a01b031681526020019081526020016000206000868581518110610c1e57610c1e613d34565b60200260200101518152602001908152602001600020805480610c4357610c43613d77565b600190038181906000526020600020016000905590558380610c6490613d8d565b945050610c7a565b610c77600183613da6565b91505b506108b3565b5080610c8b81613d8d565b9150506108a7565b5092915050565b6000818152600d60205260409020600501546001600160a01b0316610d015760405162461bcd60e51b815260206004820152601d60248201527f53616d706c65353030363a20496e76616c6964205265636f72642049640000006044820152606401610821565b6000818152600d60205260409020600601546001600160a01b031615610d805760405162461bcd60e51b815260206004820152602e60248201527f53616d706c65353030363a205265636f726420616c7265616479206f6e20726560448201526d6e742043616e7420626f72726f7760901b6064820152608401610821565b6000818152600d60205260409020600101543414610de05760405162461bcd60e51b815260206004820152601e60248201527f53616d706c65353030363a20496e73756666696369656e7420707269636500006044820152606401610821565b6000818152600d60205260409020600501546001600160a01b03163303610e555760405162461bcd60e51b8152602060048201526024808201527f53616d706c65353030363a2043616e27742062757920796f7572206f776e207460448201526337b5b2b760e11b6064820152608401610821565b6000818152600d6020526040902060030154421015610ecd5760405162461bcd60e51b815260206004820152602e60248201527f53616d706c65353030363a205265636f7264277320737461727474696d65206860448201526d185cc81393d50814915050d2115160921b6064820152608401610821565b6000818152600d60205260409020600401544210610f435760405162461bcd60e51b815260206004820152602d60248201527f53616d706c65353030363a205265636f7264277320656e6474696d652068617360448201526c081899595b88195e1c1a5c9959609a1b6064820152608401610821565b6009546000828152600d6020526040808220600581015481546002830154600493840154945163883d1d5f60e01b81526001600160a01b039384169481019490945233602485015260448401919091526001600160401b03908116606484015290921660848201529192169063883d1d5f9060a4016020604051808303816000875af1158015610fd7573d6000803e3d6000fd5b505050506040513d601f19601f82011682018060405250810190610ffb9190613dbe565b33600090815260126020908152604080832080546001818101835591855283852001879055868452600d835292819020815161010081018352815481529381015492840192909252600282015490830152600381015460608301526004810154608083015260058101546001600160a01b0390811660a084015260068201541660c08301526007015460e082015290915061109790839061284b565b6000828152600d602090815260408083206006810180546001600160a01b03191633179055600781019490945560058401546001600160a01b03168352600f82528083209354835292815291812080546001810182559082529190200155565b60606002805461110690613dd7565b80601f016020809104026020016040519081016040528092919081815260200182805461113290613dd7565b801561117f5780601f106111545761010080835404028352916020019161117f565b820191906000526020600020905b81548152906001019060200180831161116257829003601f168201915b50505050509050919050565b6001600160a01b0385163314806111a757506111a7853361062f565b6111c35760405162461bcd60e51b815260040161082190613e11565b6111d085858585856129bc565b5050505050565b600081815260046020526040902060018101546111fc906001600160a01b0316612508565b61120557600080fd5b600181015481546040805160208101909152600081526112449230926001600160a01b038216929091600160a01b90046001600160401b031690612b99565b6001810154815460009081526003602090815260408083206001600160a01b038516845290915281208054600160a01b9093046001600160401b03169290919061128f908490613d60565b90915550508054600090815260056020908152604080832060028501546001600160a01b0316845290915290206112c69083612cc3565b506000828152600460205260408082209182556001820180546001600160e01b031990811690915560029092018054909216909155517fe5e4cc148925690191c27bf527786e1ffbc70eb2e0e1efc9cafc6429b1ee777a9061132b9084815260200190565b60405180910390a15050565b6060815183511461139c5760405162461bcd60e51b815260206004820152602960248201527f455243313135353a206163636f756e747320616e6420696473206c656e677468604482015268040dad2e6dac2e8c6d60bb1b6064820152608401610821565b600083516001600160401b038111156113b7576113b761363a565b6040519080825280602002602001820160405280156113e0578160200160208202803683370190505b50905060005b84518110156114585761142b85828151811061140457611404613d34565b602002602001015185838151811061141e5761141e613d34565b60200260200101516107ba565b82828151811061143d5761143d613d34565b602090810291909101015261145181613d8d565b90506113e6565b509392505050565b60009081526003602090815260408083206001600160a01b03949094168352929052205490565b3360009081526011602052604090206060906114a2906125e8565b905090565b6114af612ccf565b6114b96000612d29565b565b60006114c686612508565b6114cf57600080fd5b6001600160a01b0385166115255760405162461bcd60e51b815260206004820152601f60248201527f757365722063616e6e6f7420626520746865207a65726f2061646472657373006044820152606401610821565b6000836001600160401b03161161157e5760405162461bcd60e51b815260206004820152601d60248201527f616d6f756e74206d7573742062652067726561746572207468616e20300000006044820152606401610821565b42826001600160401b0316116115e45760405162461bcd60e51b815260206004820152602560248201527f657870697279206d7573742061667465722074686520626c6f636b2074696d6560448201526407374616d760dc1b6064820152608401610821565b60075460008581526005602090815260408083206001600160a01b038a168452909152902061161290612d7b565b1061165f5760405162461bcd60e51b815260206004820152601d60248201527f757365722063616e6e6f742068617665206d6f7265207265636f7264730000006044820152606401610821565b611684863086866001600160401b031660405180602001604052806000815250612b99565b60008481526003602090815260408083206001600160a01b038a168452909152812080546001600160401b03861692906116bf908490613da6565b9091555050600680549060006116d483613d8d565b90915550506040805160a0810182528581526001600160a01b0388811660208084019182526001600160401b038881168587019081528b8516606087018181528a841660808901908152600680546000908152600488528b81209a518b55975160018b0180549651918b166001600160e01b031997881617600160a01b928916830217905592516002909a01805492519a909916919094161797909316909202959095179093559254888252600584528482209282529190925291902061179a91612d85565b5060065460408051918252602082018690526001600160401b03858116838301526001600160a01b03898116606085015288166080840152841660a0830152517faa05e03d03c60cd1d2749f96e50df9c0f2910357e2213b7fbb8c838c9e207d079181900360c00190a15060065495945050505050565b6000818152600d60205260409020600501546001600160a01b03166118785760405162461bcd60e51b815260206004820152601d60248201527f53616d706c65353030363a20496e76616c6964205265636f72642049640000006044820152606401610821565b6000818152600d60205260409020600501546001600160a01b031633146118f25760405162461bcd60e51b815260206004820152602860248201527f53616d706c65353030363a204e6f7420616e2076616c6964206f776e6572206f60448201526719881c9958dbdc9960c21b6064820152608401610821565b6000818152600d60205260409020600601546001600160a01b0316156119725760405162461bcd60e51b815260206004820152602f60248201527f53616d706c65353030363a20546f6b656e206973206f6e2072656e742043616e60448201526e1d081c995b5bdd99481c9958dbdc99608a1b6064820152608401610821565b6000818152600d602090815260409182902082516101008101845281548152600182015492810192909252600281015492820192909252600382015460608201526004820154608082015260058201546001600160a01b0390811660a083015260068301541660c082015260079091015460e08201526119f390829061284b565b6000818152600d602090815260408083206002810154338552601084528285209154855292528220805491929091611a2c908490613d60565b90915550611a3b9050816127ac565b50565b611a49338383612d91565b5050565b336000908152600e6020908152604080832084845282529182902080548351818402810184019094528084526060939283018282801561117f57602002820191906000526020600020905b815481526020019060010190808311611a985750505050509050919050565b600a546000908152600c60205260409020611ad28382613ea5565b50611af033600a548360405180602001604052806000815250612e71565b600a8054906000611b0083613d8d565b91905055505050565b33600090815260126020908152604091829020805483518184028101840190945280845260609392830182828015611b6057602002820191906000526020600020905b815481526020019060010190808311611b4c575b5050505050905090565b336000908152600f6020908152604080832084845282529182902080548351818402810184019094528084526060939283018282801561117f5760200282019190600052602060002090815481526020019060010190808311611a985750505050509050919050565b60008181526005602090815260408083206001600160a01b038616845290915281208190611c00906125e8565b905060005b8151811015611ccc5760046000838381518110611c2457611c24613d34565b6020026020010151815260200190815260200160002060020160149054906101000a90046001600160401b03166001600160401b03164211611cba5760046000838381518110611c7657611c76613d34565b6020026020010151815260200190815260200160002060010160149054906101000a90046001600160401b03166001600160401b031683611cb79190613da6565b92505b80611cc481613d8d565b915050611c05565b505092915050565b3385856000611ce384846107ba565b6001600160a01b0385166000908152601060209081526040808320878452909152812054919250819003611d7f5781831115611d7a5760405162461bcd60e51b815260206004820152603060248201527f53616d706c65353030363a204c656e64657220646f6e74206861766520656e6f60448201526f75676820746f6b656e20636f7069657360801b6064820152608401610821565b611f06565b600081118015611d965750611d948585611460565b155b15611e575780821015611db257611dad8282613d60565b611dbc565b611dbc8183613d60565b831115611d7a5760405162461bcd60e51b815260206004820152605a60248201527f53616d706c65353030363a204c656e64657220646f6e74206861766520656e6f60448201527f75676820746f6b656e20636f706965732e2052656d6f766520736f6d65206d6160648201527f726b6564207265636f72647320616e642074727920616761696e000000000000608482015260a401610821565b600081118015611e7057506000611e6e8686611460565b115b15611f065781831115611f065760405162461bcd60e51b815260206004820152605260248201527f53616d706c65353030363a204c656e64657220646f6e74206861766520656e6f60448201527f75676820746f6b656e20636f706965732e2052656465656d20736f6d6520726560648201527131b7b9321030b732103a393c9030b3b0b4b760711b608482015260a401610821565b60008811611f7c5760405162461bcd60e51b815260206004820152603760248201527f53616d706c65353030363a2052656e74696e672070726963652073686f756c6460448201527f20626520626520676561746572207468616e207a65726f0000000000000000006064820152608401610821565b600087118015611f8c5750600086115b611fe65760405162461bcd60e51b815260206004820152602560248201527f53616d706c65353030363a2054696d657374616d70732063616e6e6f74206265604482015264207a65726f60d81b6064820152608401610821565b8587106120515760405162461bcd60e51b815260206004820152603360248201527f53616d706c65353030363a2053746172742074696d652073686f756c64206265604482015272206c657373207468616e20656e642074696d6560681b6064820152608401610821565b4286116120c65760405162461bcd60e51b815260206004820152603860248201527f53616d706c65353030363a20456e642074696d652073686f756c64206265206760448201527f726561746572207468616e2063757272656e742074696d6500000000000000006064820152608401610821565b600089116121205760405162461bcd60e51b815260206004820152602160248201527f53616d706c65353030363a20436f706965732063616e6e6f74206265207a65726044820152606f60f81b6064820152608401610821565b6040518061010001604052808b81526020018981526020018a8152602001888152602001878152602001336001600160a01b0316815260200160006001600160a01b031681526020016000815250600d6000600b548152602001908152602001600020600082015181600001556020820151816001015560408201518160020155606082015181600301556080820151816004015560a08201518160050160006101000a8154816001600160a01b0302191690836001600160a01b0316021790555060c08201518160060160006101000a8154816001600160a01b0302191690836001600160a01b0316021790555060e08201518160070155905050600e6000336001600160a01b03166001600160a01b0316815260200190815260200160002060008b8152602001908152602001600020600b549080600181540180825580915050600190039060005260206000200160009091909190915055612285338b612f85565b3360009081526010602090815260408083208d8452909152812080548b92906122af908490613da6565b909155506122c09050306001611a3e565b600b80549060006122d083613d8d565b919050555050505050505050505050565b600c60205260009081526040902080546122fa90613dd7565b80601f016020809104026020016040519081016040528092919081815260200182805461232690613dd7565b80156123735780601f1061234857610100808354040283529160200191612373565b820191906000526020600020905b81548152906001019060200180831161235657829003601f168201915b505050505081565b6040805160a08101825260008082526020820181905291810182905260608101829052608081019190915250600090815260046020908152604091829020825160a0810184528154815260018201546001600160a01b03808216948301949094526001600160401b03600160a01b9182900481169583019590955260029092015492831660608201529104909116608082015290565b6001600160a01b03851633148061242d575061242d853361062f565b6124495760405162461bcd60e51b815260040161082190613e11565b6111d08585858585612b99565b61245e612ccf565b6001600160a01b0381166124c35760405162461bcd60e51b815260206004820152602660248201527f4f776e61626c653a206e6577206f776e657220697320746865207a65726f206160448201526564647265737360d01b6064820152608401610821565b611a3b81612d29565b60405133904780156108fc02916000818181858888f19350505050158015611a3b573d6000803e3d6000fd5b612503838383612fcf565b505050565b60006001600160a01b0382163314806125265750612526823361062f565b61256b5760405162461bcd60e51b81526020600482015260166024820152751bdb9b1e481bdddb995c881bdc88185c1c1c9bdd995960521b6044820152606401610821565b506001919050565b60006001600160e01b03198216636cdb3d1360e11b14806125a457506001600160e01b031982166303a24d0760e21b145b8061084d57506301ffc9a760e01b6001600160e01b031983161461084d565b60006001600160e01b03198216630271189760e51b148061084d575061084d82612573565b606060006125f58361314b565b9392505050565b60005b6001600160a01b038216600090815260126020526040902054811015612503576001600160a01b038216600090815260126020526040902080548491908390811061264c5761264c613d34565b90600052602060002001540361279a576009546000848152600d602052604090819020600701549051630dd45bdf60e21b81526001600160a01b03909216916337516f7c916126a19160040190815260200190565b600060405180830381600087803b1580156126bb57600080fd5b505af11580156126cf573d6000803e3d6000fd5b505050506001600160a01b038216600090815260126020526040902080546126f990600190613d60565b8154811061270957612709613d34565b906000526020600020015460126000846001600160a01b03166001600160a01b03168152602001908152602001600020828154811061274a5761274a613d34565b60009182526020808320909101929092556001600160a01b038416815260129091526040902080548061277f5761277f613d77565b60019003818190600052602060002001600090559055505050565b806127a481613d8d565b9150506125ff565b6000908152600d60205260408120818155600181018290556002810182905560038101829055600481018290556005810180546001600160a01b0319908116909155600682018054909116905560070155565b6001600160a01b03821660009081526010602090815260408083208484529091528120549003611a49576001600160a01b03821660009081526011602052604090206125039082612cc3565b60005b60a08201516001600160a01b03166000908152600e60209081526040808320855184529091529020548110156125035760a08201516001600160a01b03166000908152600e602090815260408083208551845290915290208054849190839081106128bb576128bb613d34565b9060005260206000200154036129aa5760a0820180516001600160a01b039081166000908152600e6020818152604080842088518552825280842095519094168352908152828220865183529052205461291790600190613d60565b8154811061292757612927613d34565b600091825260208083209091015460a08501516001600160a01b03168352600e8252604080842086518552909252912080548390811061296957612969613d34565b600091825260208083209091019290925560a08401516001600160a01b03168152600e82526040808220855183529092522080548061277f5761277f613d77565b806129b481613d8d565b91505061284e565b8151835114612a1e5760405162461bcd60e51b815260206004820152602860248201527f455243313135353a2069647320616e6420616d6f756e7473206c656e677468206044820152670dad2e6dac2e8c6d60c31b6064820152608401610821565b6001600160a01b038416612a445760405162461bcd60e51b815260040161082190613f64565b3360005b8451811015612b2b576000858281518110612a6557612a65613d34565b602002602001015190506000858381518110612a8357612a83613d34565b602090810291909101810151600084815280835260408082206001600160a01b038e168352909352919091205490915081811015612ad35760405162461bcd60e51b815260040161082190613fa9565b6000838152602081815260408083206001600160a01b038e8116855292528083208585039055908b16825281208054849290612b10908490613da6565b9250508190555050505080612b2490613d8d565b9050612a48565b50846001600160a01b0316866001600160a01b0316826001600160a01b03167f4a39dc06d4c0dbc64b70af90fd698a233a518aa5d07e595d983b8c0526c8f7fb8787604051612b7b929190613ff3565b60405180910390a4612b918187878787876131a5565b505050505050565b6001600160a01b038416612bbf5760405162461bcd60e51b815260040161082190613f64565b336000612bcb85613300565b90506000612bd885613300565b90506000868152602081815260408083206001600160a01b038c16845290915290205485811015612c1b5760405162461bcd60e51b815260040161082190613fa9565b6000878152602081815260408083206001600160a01b038d8116855292528083208985039055908a16825281208054889290612c58908490613da6565b909155505060408051888152602081018890526001600160a01b03808b16928c821692918816917fc3d58168c5ae7397731d063d5bbf3d657854427343f4c083240f7aacaa2d0f62910160405180910390a4612cb8848a8a8a8a8a61334b565b505050505050505050565b60006125f58383613406565b6008546001600160a01b031633146114b95760405162461bcd60e51b815260206004820181905260248201527f4f776e61626c653a2063616c6c6572206973206e6f7420746865206f776e65726044820152606401610821565b600880546001600160a01b038381166001600160a01b0319831681179093556040519116919082907f8be0079c531659141344cd1fd0a4f28419497f9722a3daafe3b4186f6b6457e090600090a35050565b600061084d825490565b60006125f583836134f9565b816001600160a01b0316836001600160a01b031603612e045760405162461bcd60e51b815260206004820152602960248201527f455243313135353a2073657474696e6720617070726f76616c20737461747573604482015268103337b91039b2b63360b91b6064820152608401610821565b6001600160a01b03838116600081815260016020908152604080832094871680845294825291829020805460ff191686151590811790915591519182527f17307eab39ab6107e8899845ad3d59bd9653f200f220920489ca2b5937696c31910160405180910390a3505050565b6001600160a01b038416612ed15760405162461bcd60e51b815260206004820152602160248201527f455243313135353a206d696e7420746f20746865207a65726f206164647265736044820152607360f81b6064820152608401610821565b336000612edd85613300565b90506000612eea85613300565b90506000868152602081815260408083206001600160a01b038b16845290915281208054879290612f1c908490613da6565b909155505060408051878152602081018790526001600160a01b03808a1692600092918716917fc3d58168c5ae7397731d063d5bbf3d657854427343f4c083240f7aacaa2d0f62910160405180910390a4612f7c8360008989898961334b565b50505050505050565b6001600160a01b0382166000908152601060209081526040808320848452909152902054611a49576001600160a01b03821660009081526011602052604090206125039082612d85565b6001600160a01b0383166130315760405162461bcd60e51b815260206004820152602360248201527f455243313135353a206275726e2066726f6d20746865207a65726f206164647260448201526265737360e81b6064820152608401610821565b33600061303d84613300565b9050600061304a84613300565b60408051602080820183526000918290528882528181528282206001600160a01b038b16835290522054909150848110156130d35760405162461bcd60e51b8152602060048201526024808201527f455243313135353a206275726e20616d6f756e7420657863656564732062616c604482015263616e636560e01b6064820152608401610821565b6000868152602081815260408083206001600160a01b038b81168086529184528285208a8703905582518b81529384018a90529092908816917fc3d58168c5ae7397731d063d5bbf3d657854427343f4c083240f7aacaa2d0f62910160405180910390a4604080516020810190915260009052612f7c565b60608160000180548060200260200160405190810160405280929190818152602001828054801561117f5760200282019190600052602060002090815481526020019060010190808311611a985750505050509050919050565b6001600160a01b0384163b15612b915760405163bc197c8160e01b81526001600160a01b0385169063bc197c81906131e99089908990889088908890600401614021565b6020604051808303816000875af1925050508015613224575060408051601f3d908101601f191682019092526132219181019061407f565b60015b6132d05761323061409c565b806308c379a00361326957506132446140b8565b8061324f575061326b565b8060405162461bcd60e51b81526004016108219190613627565b505b60405162461bcd60e51b815260206004820152603460248201527f455243313135353a207472616e7366657220746f206e6f6e2d455243313135356044820152732932b1b2b4bb32b91034b6b83632b6b2b73a32b960611b6064820152608401610821565b6001600160e01b0319811663bc197c8160e01b14612f7c5760405162461bcd60e51b815260040161082190614141565b6040805160018082528183019092526060916000919060208083019080368337019050509050828160008151811061333a5761333a613d34565b602090810291909101015292915050565b6001600160a01b0384163b15612b915760405163f23a6e6160e01b81526001600160a01b0385169063f23a6e619061338f9089908990889088908890600401614189565b6020604051808303816000875af19250505080156133ca575060408051601f3d908101601f191682019092526133c79181019061407f565b60015b6133d65761323061409c565b6001600160e01b0319811663f23a6e6160e01b14612f7c5760405162461bcd60e51b815260040161082190614141565b600081815260018301602052604081205480156134ef57600061342a600183613d60565b855490915060009061343e90600190613d60565b90508181146134a357600086600001828154811061345e5761345e613d34565b906000526020600020015490508087600001848154811061348157613481613d34565b6000918252602080832090910192909255918252600188019052604090208390555b85548690806134b4576134b4613d77565b60019003818190600052602060002001600090559055856001016000868152602001908152602001600020600090556001935050505061084d565b600091505061084d565b60008181526001830160205260408120546135405750815460018181018455600084815260208082209093018490558454848252828601909352604090209190915561084d565b50600061084d565b80356001600160a01b038116811461355f57600080fd5b919050565b6000806040838503121561357757600080fd5b61358083613548565b946020939093013593505050565b6001600160e01b031981168114611a3b57600080fd5b6000602082840312156135b657600080fd5b81356125f58161358e565b6000602082840312156135d357600080fd5b5035919050565b6000815180845260005b81811015613600576020818501810151868301820152016135e4565b81811115613612576000602083870101525b50601f01601f19169290920160200192915050565b6020815260006125f560208301846135da565b634e487b7160e01b600052604160045260246000fd5b601f8201601f191681016001600160401b03811182821017156136755761367561363a565b6040525050565b60006001600160401b038211156136955761369561363a565b5060051b60200190565b600082601f8301126136b057600080fd5b813560206136bd8261367c565b6040516136ca8282613650565b83815260059390931b85018201928281019150868411156136ea57600080fd5b8286015b8481101561370557803583529183019183016136ee565b509695505050505050565b60006001600160401b038311156137295761372961363a565b604051613740601f8501601f191660200182613650565b80915083815284848401111561375557600080fd5b83836020830137600060208583010152509392505050565b600082601f83011261377e57600080fd5b6125f583833560208501613710565b600080600080600060a086880312156137a557600080fd5b6137ae86613548565b94506137bc60208701613548565b935060408601356001600160401b03808211156137d857600080fd5b6137e489838a0161369f565b945060608801359150808211156137fa57600080fd5b61380689838a0161369f565b9350608088013591508082111561381c57600080fd5b506138298882890161376d565b9150509295509295909350565b6000806040838503121561384957600080fd5b82356001600160401b038082111561386057600080fd5b818501915085601f83011261387457600080fd5b813560206138818261367c565b60405161388e8282613650565b83815260059390931b85018201928281019150898411156138ae57600080fd5b948201945b838610156138d3576138c486613548565b825294820194908201906138b3565b965050860135925050808211156138e957600080fd5b506138f68582860161369f565b9150509250929050565b600081518084526020808501945080840160005b8381101561393057815187529582019590820190600101613914565b509495945050505050565b6020815260006125f56020830184613900565b80356001600160401b038116811461355f57600080fd5b600080600080600060a0868803121561397d57600080fd5b61398686613548565b945061399460208701613548565b9350604086013592506139a96060870161394e565b91506139b76080870161394e565b90509295509295909350565b600080604083850312156139d657600080fd5b6139df83613548565b9150602083013580151581146139f457600080fd5b809150509250929050565b60008083601f840112613a1157600080fd5b5081356001600160401b03811115613a2857600080fd5b6020830191508360208260051b8501011115613a4357600080fd5b9250929050565b60008083601f840112613a5c57600080fd5b5081356001600160401b03811115613a7357600080fd5b602083019150836020828501011115613a4357600080fd5b60008060008060008060008060a0898b031215613aa757600080fd5b613ab089613548565b9750613abe60208a01613548565b965060408901356001600160401b0380821115613ada57600080fd5b613ae68c838d016139ff565b909850965060608b0135915080821115613aff57600080fd5b613b0b8c838d016139ff565b909650945060808b0135915080821115613b2457600080fd5b50613b318b828c01613a4a565b999c989b5096995094979396929594505050565b60008060408385031215613b5857600080fd5b82356001600160401b03811115613b6e57600080fd5b8301601f81018513613b7f57600080fd5b613b8e85823560208401613710565b95602094909401359450505050565b600080600080600060a08688031215613bb557600080fd5b505083359560208501359550604085013594606081013594506080013592509050565b60008060408385031215613beb57600080fd5b613bf483613548565b9150613c0260208401613548565b90509250929050565b60008060008060008060a08789031215613c2457600080fd5b613c2d87613548565b9550613c3b60208801613548565b9450604087013593506060870135925060808701356001600160401b03811115613c6457600080fd5b613c7089828a01613a4a565b979a9699509497509295939492505050565b600080600080600060a08688031215613c9a57600080fd5b613ca386613548565b9450613cb160208701613548565b9350604086013592506060860135915060808601356001600160401b03811115613cda57600080fd5b6138298882890161376d565b600060208284031215613cf857600080fd5b6125f582613548565b600080600060608486031215613d1657600080fd5b613d1f84613548565b95602085013595506040909401359392505050565b634e487b7160e01b600052603260045260246000fd5b634e487b7160e01b600052601160045260246000fd5b600082821015613d7257613d72613d4a565b500390565b634e487b7160e01b600052603160045260246000fd5b600060018201613d9f57613d9f613d4a565b5060010190565b60008219821115613db957613db9613d4a565b500190565b600060208284031215613dd057600080fd5b5051919050565b600181811c90821680613deb57607f821691505b602082108103613e0b57634e487b7160e01b600052602260045260246000fd5b50919050565b6020808252602e908201527f455243313135353a2063616c6c6572206973206e6f7420746f6b656e206f776e60408201526d195c881bdc88185c1c1c9bdd995960921b606082015260800190565b601f82111561250357600081815260208120601f850160051c81016020861015613e865750805b601f850160051c820191505b81811015612b9157828155600101613e92565b81516001600160401b03811115613ebe57613ebe61363a565b613ed281613ecc8454613dd7565b84613e5f565b602080601f831160018114613f075760008415613eef5750858301515b600019600386901b1c1916600185901b178555612b91565b600085815260208120601f198616915b82811015613f3657888601518255948401946001909101908401613f17565b5085821015613f545787850151600019600388901b60f8161c191681555b5050505050600190811b01905550565b60208082526025908201527f455243313135353a207472616e7366657220746f20746865207a65726f206164604082015264647265737360d81b606082015260800190565b6020808252602a908201527f455243313135353a20696e73756666696369656e742062616c616e636520666f60408201526939103a3930b739b332b960b11b606082015260800190565b6040815260006140066040830185613900565b82810360208401526140188185613900565b95945050505050565b6001600160a01b0386811682528516602082015260a06040820181905260009061404d90830186613900565b828103606084015261405f8186613900565b9050828103608084015261407381856135da565b98975050505050505050565b60006020828403121561409157600080fd5b81516125f58161358e565b600060033d11156140b55760046000803e5060005160e01c5b90565b600060443d10156140c65790565b6040516003193d81016004833e81513d6001600160401b0381602484011181841117156140f557505050505090565b828501915081518181111561410d5750505050505090565b843d87010160208285010111156141275750505050505090565b61413660208286010187613650565b509095945050505050565b60208082526028908201527f455243313135353a204552433131353552656365697665722072656a656374656040820152676420746f6b656e7360c01b606082015260800190565b6001600160a01b03868116825285166020820152604081018490526060810183905260a0608082018190526000906141c3908301846135da565b97965050505050505056fea2646970667358221220008f5d569aec78772e22590662204215fb359b40c497eafe22d1754faaf1971a64736f6c634300080f0033",
  "linkReferences": {},
  "deployedLinkReferences": {}
}