{
  "_format": "hh-sol-artifact-1",
  "contractName": "ERC5006",
  "sourceName": "contracts/ERC5006.sol",
  "abi": [
    {
      "inputs": [
        {
          "internalType": "string",
          "name": "uri_",
          "type": "string"
        },
        {
          "internalType": "uint256",
          "name": "recordLimit_",
          "type": "uint256"
        }
      ],
      "stateMutability": "nonpayable",
      "type": "constructor"
    },
    {
      "anonymous": false,
      "inputs": [
        {
          "indexed": true,
          "internalType": "address",
          "name": "account",
          "type": "address"
        },
        {
          "indexed": true,
          "internalType": "address",
          "name": "operator",
          "type": "address"
        },
        {
          "indexed": false,
          "internalType": "bool",
          "name": "approved",
          "type": "bool"
        }
      ],
      "name": "ApprovalForAll",
      "type": "event"
    },
    {
      "anonymous": false,
      "inputs": [
        {
          "indexed": false,
          "internalType": "uint256",
          "name": "recordId",
          "type": "uint256"
        },
        {
          "indexed": false,
          "internalType": "uint256",
          "name": "tokenId",
          "type": "uint256"
        },
        {
          "indexed": false,
          "internalType": "uint64",
          "name": "amount",
          "type": "uint64"
        },
        {
          "indexed": false,
          "internalType": "address",
          "name": "owner",
          "type": "address"
        },
        {
          "indexed": false,
          "internalType": "address",
          "name": "user",
          "type": "address"
        },
        {
          "indexed": false,
          "internalType": "uint64",
          "name": "expiry",
          "type": "uint64"
        }
      ],
      "name": "CreateUserRecord",
      "type": "event"
    },
    {
      "anonymous": false,
      "inputs": [
        {
          "indexed": false,
          "internalType": "uint256",
          "name": "recordId",
          "type": "uint256"
        }
      ],
      "name": "DeleteUserRecord",
      "type": "event"
    },
    {
      "anonymous": false,
      "inputs": [
        {
          "indexed": true,
          "internalType": "address",
          "name": "operator",
          "type": "address"
        },
        {
          "indexed": true,
          "internalType": "address",
          "name": "from",
          "type": "address"
        },
        {
          "indexed": true,
          "internalType": "address",
          "name": "to",
          "type": "address"
        },
        {
          "indexed": false,
          "internalType": "uint256[]",
          "name": "ids",
          "type": "uint256[]"
        },
        {
          "indexed": false,
          "internalType": "uint256[]",
          "name": "values",
          "type": "uint256[]"
        }
      ],
      "name": "TransferBatch",
      "type": "event"
    },
    {
      "anonymous": false,
      "inputs": [
        {
          "indexed": true,
          "internalType": "address",
          "name": "operator",
          "type": "address"
        },
        {
          "indexed": true,
          "internalType": "address",
          "name": "from",
          "type": "address"
        },
        {
          "indexed": true,
          "internalType": "address",
          "name": "to",
          "type": "address"
        },
        {
          "indexed": false,
          "internalType": "uint256",
          "name": "id",
          "type": "uint256"
        },
        {
          "indexed": false,
          "internalType": "uint256",
          "name": "value",
          "type": "uint256"
        }
      ],
      "name": "TransferSingle",
      "type": "event"
    },
    {
      "anonymous": false,
      "inputs": [
        {
          "indexed": false,
          "internalType": "string",
          "name": "value",
          "type": "string"
        },
        {
          "indexed": true,
          "internalType": "uint256",
          "name": "id",
          "type": "uint256"
        }
      ],
      "name": "URI",
      "type": "event"
    },
    {
      "inputs": [
        {
          "internalType": "address",
          "name": "account",
          "type": "address"
        },
        {
          "internalType": "uint256",
          "name": "id",
          "type": "uint256"
        }
      ],
      "name": "balanceOf",
      "outputs": [
        {
          "internalType": "uint256",
          "name": "",
          "type": "uint256"
        }
      ],
      "stateMutability": "view",
      "type": "function"
    },
    {
      "inputs": [
        {
          "internalType": "address[]",
          "name": "accounts",
          "type": "address[]"
        },
        {
          "internalType": "uint256[]",
          "name": "ids",
          "type": "uint256[]"
        }
      ],
      "name": "balanceOfBatch",
      "outputs": [
        {
          "internalType": "uint256[]",
          "name": "",
          "type": "uint256[]"
        }
      ],
      "stateMutability": "view",
      "type": "function"
    },
    {
      "inputs": [
        {
          "internalType": "address",
          "name": "owner",
          "type": "address"
        },
        {
          "internalType": "address",
          "name": "user",
          "type": "address"
        },
        {
          "internalType": "uint256",
          "name": "tokenId",
          "type": "uint256"
        },
        {
          "internalType": "uint64",
          "name": "amount",
          "type": "uint64"
        },
        {
          "internalType": "uint64",
          "name": "expiry",
          "type": "uint64"
        }
      ],
      "name": "createUserRecord",
      "outputs": [
        {
          "internalType": "uint256",
          "name": "",
          "type": "uint256"
        }
      ],
      "stateMutability": "nonpayable",
      "type": "function"
    },
    {
      "inputs": [
        {
          "internalType": "uint256",
          "name": "recordId",
          "type": "uint256"
        }
      ],
      "name": "deleteUserRecord",
      "outputs": [],
      "stateMutability": "nonpayable",
      "type": "function"
    },
    {
      "inputs": [
        {
          "internalType": "address",
          "name": "account",
          "type": "address"
        },
        {
          "internalType": "uint256",
          "name": "tokenId",
          "type": "uint256"
        }
      ],
      "name": "frozenBalanceOf",
      "outputs": [
        {
          "internalType": "uint256",
          "name": "",
          "type": "uint256"
        }
      ],
      "stateMutability": "view",
      "type": "function"
    },
    {
      "inputs": [
        {
          "internalType": "address",
          "name": "account",
          "type": "address"
        },
        {
          "internalType": "address",
          "name": "operator",
          "type": "address"
        }
      ],
      "name": "isApprovedForAll",
      "outputs": [
        {
          "internalType": "bool",
          "name": "",
          "type": "bool"
        }
      ],
      "stateMutability": "view",
      "type": "function"
    },
    {
      "inputs": [
        {
          "internalType": "address",
          "name": "owner",
          "type": "address"
        }
      ],
      "name": "isOwnerOrApproved",
      "outputs": [
        {
          "internalType": "bool",
          "name": "",
          "type": "bool"
        }
      ],
      "stateMutability": "view",
      "type": "function"
    },
    {
      "inputs": [
        {
          "internalType": "address",
          "name": "operator",
          "type": "address"
        },
        {
          "internalType": "address",
          "name": "from",
          "type": "address"
        },
        {
          "internalType": "uint256[]",
          "name": "ids",
          "type": "uint256[]"
        },
        {
          "internalType": "uint256[]",
          "name": "values",
          "type": "uint256[]"
        },
        {
          "internalType": "bytes",
          "name": "data",
          "type": "bytes"
        }
      ],
      "name": "onERC1155BatchReceived",
      "outputs": [
        {
          "internalType": "bytes4",
          "name": "",
          "type": "bytes4"
        }
      ],
      "stateMutability": "pure",
      "type": "function"
    },
    {
      "inputs": [
        {
          "internalType": "address",
          "name": "operator",
          "type": "address"
        },
        {
          "internalType": "address",
          "name": "from",
          "type": "address"
        },
        {
          "internalType": "uint256",
          "name": "tokenId",
          "type": "uint256"
        },
        {
          "internalType": "uint256",
          "name": "value",
          "type": "uint256"
        },
        {
          "internalType": "bytes",
          "name": "data",
          "type": "bytes"
        }
      ],
      "name": "onERC1155Received",
      "outputs": [
        {
          "internalType": "bytes4",
          "name": "",
          "type": "bytes4"
        }
      ],
      "stateMutability": "pure",
      "type": "function"
    },
    {
      "inputs": [
        {
          "internalType": "address",
          "name": "from",
          "type": "address"
        },
        {
          "internalType": "address",
          "name": "to",
          "type": "address"
        },
        {
          "internalType": "uint256[]",
          "name": "ids",
          "type": "uint256[]"
        },
        {
          "internalType": "uint256[]",
          "name": "amounts",
          "type": "uint256[]"
        },
        {
          "internalType": "bytes",
          "name": "data",
          "type": "bytes"
        }
      ],
      "name": "safeBatchTransferFrom",
      "outputs": [],
      "stateMutability": "nonpayable",
      "type": "function"
    },
    {
      "inputs": [
        {
          "internalType": "address",
          "name": "from",
          "type": "address"
        },
        {
          "internalType": "address",
          "name": "to",
          "type": "address"
        },
        {
          "internalType": "uint256",
          "name": "id",
          "type": "uint256"
        },
        {
          "internalType": "uint256",
          "name": "amount",
          "type": "uint256"
        },
        {
          "internalType": "bytes",
          "name": "data",
          "type": "bytes"
        }
      ],
      "name": "safeTransferFrom",
      "outputs": [],
      "stateMutability": "nonpayable",
      "type": "function"
    },
    {
      "inputs": [
        {
          "internalType": "address",
          "name": "operator",
          "type": "address"
        },
        {
          "internalType": "bool",
          "name": "approved",
          "type": "bool"
        }
      ],
      "name": "setApprovalForAll",
      "outputs": [],
      "stateMutability": "nonpayable",
      "type": "function"
    },
    {
      "inputs": [
        {
          "internalType": "bytes4",
          "name": "interfaceId",
          "type": "bytes4"
        }
      ],
      "name": "supportsInterface",
      "outputs": [
        {
          "internalType": "bool",
          "name": "",
          "type": "bool"
        }
      ],
      "stateMutability": "view",
      "type": "function"
    },
    {
      "inputs": [
        {
          "internalType": "uint256",
          "name": "",
          "type": "uint256"
        }
      ],
      "name": "uri",
      "outputs": [
        {
          "internalType": "string",
          "name": "",
          "type": "string"
        }
      ],
      "stateMutability": "view",
      "type": "function"
    },
    {
      "inputs": [
        {
          "internalType": "address",
          "name": "account",
          "type": "address"
        },
        {
          "internalType": "uint256",
          "name": "tokenId",
          "type": "uint256"
        }
      ],
      "name": "usableBalanceOf",
      "outputs": [
        {
          "internalType": "uint256",
          "name": "amount",
          "type": "uint256"
        }
      ],
      "stateMutability": "view",
      "type": "function"
    },
    {
      "inputs": [
        {
          "internalType": "uint256",
          "name": "recordId",
          "type": "uint256"
        }
      ],
      "name": "userRecordOf",
      "outputs": [
        {
          "components": [
            {
              "internalType": "uint256",
              "name": "tokenId",
              "type": "uint256"
            },
            {
              "internalType": "address",
              "name": "owner",
              "type": "address"
            },
            {
              "internalType": "uint64",
              "name": "amount",
              "type": "uint64"
            },
            {
              "internalType": "address",
              "name": "user",
              "type": "address"
            },
            {
              "internalType": "uint64",
              "name": "expiry",
              "type": "uint64"
            }
          ],
          "internalType": "struct IERC5006.UserRecord",
          "name": "",
          "type": "tuple"
        }
      ],
      "stateMutability": "view",
      "type": "function"
    }
  ],
  "bytecode": "0x60806040523480156200001157600080fd5b506040516200235838038062002358833981016040819052620000349162000073565b8162000040816200004b565b5060075550620002b3565b6002620000598282620001e7565b5050565b634e487b7160e01b600052604160045260246000fd5b600080604083850312156200008757600080fd5b82516001600160401b03808211156200009f57600080fd5b818501915085601f830112620000b457600080fd5b815181811115620000c957620000c96200005d565b604051601f8201601f19908116603f01168101908382118183101715620000f457620000f46200005d565b816040528281526020935088848487010111156200011157600080fd5b600091505b8282101562000135578482018401518183018501529083019062000116565b82821115620001475760008484830101525b969092015195979596505050505050565b600181811c908216806200016d57607f821691505b6020821081036200018e57634e487b7160e01b600052602260045260246000fd5b50919050565b601f821115620001e257600081815260208120601f850160051c81016020861015620001bd5750805b601f850160051c820191505b81811015620001de57828155600101620001c9565b5050505b505050565b81516001600160401b038111156200020357620002036200005d565b6200021b8162000214845462000158565b8462000194565b602080601f8311600181146200025357600084156200023a5750858301515b600019600386901b1c1916600185901b178555620001de565b600085815260208120601f198616915b82811015620002845788860151825594840194600190910190840162000263565b5085821015620002a35787850151600019600388901b60f8161c191681555b5050505050600190811b01905550565b61209580620002c36000396000f3fe608060405234801561001057600080fd5b50600436106100ff5760003560e01c8063a22cb46511610097578063f0af245a11610066578063f0af245a1461029a578063f23a6e6114610399578063f242432a146103b9578063f5b3f424146103cc57600080fd5b8063a22cb465146101fd578063bc197c8114610210578063def2cc561461024b578063e985e9c51461025e57600080fd5b806337516f7c116100d357806337516f7c146101825780634e1273f414610195578063535c0ce3146101b5578063883d1d5f146101ea57600080fd5b8062fdd58e1461010457806301ffc9a71461012a5780630e89341c1461014d5780632eb2c2d61461016d575b600080fd5b6101176101123660046115e0565b6103df565b6040519081526020015b60405180910390f35b61013d610138366004611623565b610478565b6040519015158152602001610121565b61016061015b366004611640565b6104ac565b60405161012191906116a6565b61018061017b366004611802565b610540565b005b610180610190366004611640565b61058c565b6101a86101a33660046118ab565b6106ec565b60405161012191906119b0565b6101176101c33660046115e0565b60009081526003602090815260408083206001600160a01b03949094168352929052205490565b6101176101f83660046119da565b610815565b61018061020b366004611a38565b610b6b565b61023261021e366004611b00565b63bc197c8160e01b98975050505050505050565b6040516001600160e01b03199091168152602001610121565b6101176102593660046115e0565b610b7a565b61013d61026c366004611bba565b6001600160a01b03918216600090815260016020908152604080832093909416825291909152205460ff1690565b61033e6102a8366004611640565b6040805160a08101825260008082526020820181905291810182905260608101829052608081019190915250600090815260046020908152604091829020825160a0810184528154815260018201546001600160a01b03808216948301949094526001600160401b03600160a01b9182900481169583019590955260029092015492831660608201529104909116608082015290565b60408051825181526020808401516001600160a01b0390811691830191909152838301516001600160401b0390811693830193909352606080850151909116908201526080928301519091169181019190915260a001610121565b6102326103a7366004611bed565b63f23a6e6160e01b9695505050505050565b6101806103c7366004611c64565b610c7b565b61013d6103da366004611cc8565b610cc0565b60006001600160a01b03831661044f5760405162461bcd60e51b815260206004820152602a60248201527f455243313135353a2061646472657373207a65726f206973206e6f742061207660448201526930b634b21037bbb732b960b11b60648201526084015b60405180910390fd5b506000818152602081815260408083206001600160a01b03861684529091529020545b92915050565b60006001600160e01b0319821663309b65b360e21b148061049d575061049d82610d2b565b80610472575061047282610d7b565b6060600280546104bb90611ce3565b80601f01602080910402602001604051908101604052809291908181526020018280546104e790611ce3565b80156105345780601f1061050957610100808354040283529160200191610534565b820191906000526020600020905b81548152906001019060200180831161051757829003601f168201915b50505050509050919050565b6001600160a01b03851633148061055c575061055c853361026c565b6105785760405162461bcd60e51b815260040161044690611d1d565b6105858585858585610da0565b5050505050565b600081815260046020526040902060018101546105b1906001600160a01b0316610cc0565b6105ba57600080fd5b600181015481546040805160208101909152600081526105f99230926001600160a01b038216929091600160a01b90046001600160401b031690610f7d565b6001810154815460009081526003602090815260408083206001600160a01b038516845290915281208054600160a01b9093046001600160401b031692909190610644908490611d81565b90915550508054600090815260056020908152604080832060028501546001600160a01b03168452909152902061067b90836110a7565b506000828152600460205260408082209182556001820180546001600160e01b031990811690915560029092018054909216909155517fe5e4cc148925690191c27bf527786e1ffbc70eb2e0e1efc9cafc6429b1ee777a906106e09084815260200190565b60405180910390a15050565b606081518351146107515760405162461bcd60e51b815260206004820152602960248201527f455243313135353a206163636f756e747320616e6420696473206c656e677468604482015268040dad2e6dac2e8c6d60bb1b6064820152608401610446565b600083516001600160401b0381111561076c5761076c6116b9565b604051908082528060200260200182016040528015610795578160200160208202803683370190505b50905060005b845181101561080d576107e08582815181106107b9576107b9611d98565b60200260200101518583815181106107d3576107d3611d98565b60200260200101516103df565b8282815181106107f2576107f2611d98565b602090810291909101015261080681611dae565b905061079b565b509392505050565b600061082086610cc0565b61082957600080fd5b6001600160a01b03851661087f5760405162461bcd60e51b815260206004820152601f60248201527f757365722063616e6e6f7420626520746865207a65726f2061646472657373006044820152606401610446565b6000836001600160401b0316116108d85760405162461bcd60e51b815260206004820152601d60248201527f616d6f756e74206d7573742062652067726561746572207468616e20300000006044820152606401610446565b42826001600160401b03161161093e5760405162461bcd60e51b815260206004820152602560248201527f657870697279206d7573742061667465722074686520626c6f636b2074696d6560448201526407374616d760dc1b6064820152608401610446565b60075460008581526005602090815260408083206001600160a01b038a168452909152902061096c906110ba565b106109b95760405162461bcd60e51b815260206004820152601d60248201527f757365722063616e6e6f742068617665206d6f7265207265636f7264730000006044820152606401610446565b6109de863086866001600160401b031660405180602001604052806000815250610f7d565b60008481526003602090815260408083206001600160a01b038a168452909152812080546001600160401b0386169290610a19908490611dc7565b909155505060068054906000610a2e83611dae565b90915550506040805160a0810182528581526001600160a01b0388811660208084019182526001600160401b038881168587019081528b8516606087018181528a841660808901908152600680546000908152600488528b81209a518b55975160018b0180549651918b166001600160e01b031997881617600160a01b928916830217905592516002909a01805492519a9099169190941617979093169092029590951790935592548882526005845284822092825291909252919020610af4916110c4565b5060065460408051918252602082018690526001600160401b03858116838301526001600160a01b03898116606085015288166080840152841660a0830152517faa05e03d03c60cd1d2749f96e50df9c0f2910357e2213b7fbb8c838c9e207d079181900360c00190a15060065495945050505050565b610b763383836110d0565b5050565b60008181526005602090815260408083206001600160a01b038616845290915281208190610ba7906111b0565b905060005b8151811015610c735760046000838381518110610bcb57610bcb611d98565b6020026020010151815260200190815260200160002060020160149054906101000a90046001600160401b03166001600160401b03164211610c615760046000838381518110610c1d57610c1d611d98565b6020026020010151815260200190815260200160002060010160149054906101000a90046001600160401b03166001600160401b031683610c5e9190611dc7565b92505b80610c6b81611dae565b915050610bac565b505092915050565b6001600160a01b038516331480610c975750610c97853361026c565b610cb35760405162461bcd60e51b815260040161044690611d1d565b6105858585858585610f7d565b60006001600160a01b038216331480610cde5750610cde823361026c565b610d235760405162461bcd60e51b81526020600482015260166024820152751bdb9b1e481bdddb995c881bdc88185c1c1c9bdd995960521b6044820152606401610446565b506001919050565b60006001600160e01b03198216636cdb3d1360e11b1480610d5c57506001600160e01b031982166303a24d0760e21b145b8061047257506301ffc9a760e01b6001600160e01b0319831614610472565b60006001600160e01b03198216630271189760e51b1480610472575061047282610d2b565b8151835114610e025760405162461bcd60e51b815260206004820152602860248201527f455243313135353a2069647320616e6420616d6f756e7473206c656e677468206044820152670dad2e6dac2e8c6d60c31b6064820152608401610446565b6001600160a01b038416610e285760405162461bcd60e51b815260040161044690611ddf565b3360005b8451811015610f0f576000858281518110610e4957610e49611d98565b602002602001015190506000858381518110610e6757610e67611d98565b602090810291909101810151600084815280835260408082206001600160a01b038e168352909352919091205490915081811015610eb75760405162461bcd60e51b815260040161044690611e24565b6000838152602081815260408083206001600160a01b038e8116855292528083208585039055908b16825281208054849290610ef4908490611dc7565b9250508190555050505080610f0890611dae565b9050610e2c565b50846001600160a01b0316866001600160a01b0316826001600160a01b03167f4a39dc06d4c0dbc64b70af90fd698a233a518aa5d07e595d983b8c0526c8f7fb8787604051610f5f929190611e6e565b60405180910390a4610f758187878787876111bd565b505050505050565b6001600160a01b038416610fa35760405162461bcd60e51b815260040161044690611ddf565b336000610faf85611321565b90506000610fbc85611321565b90506000868152602081815260408083206001600160a01b038c16845290915290205485811015610fff5760405162461bcd60e51b815260040161044690611e24565b6000878152602081815260408083206001600160a01b038d8116855292528083208985039055908a1682528120805488929061103c908490611dc7565b909155505060408051888152602081018890526001600160a01b03808b16928c821692918816917fc3d58168c5ae7397731d063d5bbf3d657854427343f4c083240f7aacaa2d0f62910160405180910390a461109c848a8a8a8a8a61136c565b505050505050505050565b60006110b38383611427565b9392505050565b6000610472825490565b60006110b3838361151a565b816001600160a01b0316836001600160a01b0316036111435760405162461bcd60e51b815260206004820152602960248201527f455243313135353a2073657474696e6720617070726f76616c20737461747573604482015268103337b91039b2b63360b91b6064820152608401610446565b6001600160a01b03838116600081815260016020908152604080832094871680845294825291829020805460ff191686151590811790915591519182527f17307eab39ab6107e8899845ad3d59bd9653f200f220920489ca2b5937696c31910160405180910390a3505050565b606060006110b383611569565b6001600160a01b0384163b15610f755760405163bc197c8160e01b81526001600160a01b0385169063bc197c81906112019089908990889088908890600401611e9c565b6020604051808303816000875af192505050801561123c575060408051601f3d908101601f1916820190925261123991810190611efa565b60015b6112e857611248611f17565b806308c379a003611281575061125c611f33565b806112675750611283565b8060405162461bcd60e51b815260040161044691906116a6565b505b60405162461bcd60e51b815260206004820152603460248201527f455243313135353a207472616e7366657220746f206e6f6e2d455243313135356044820152732932b1b2b4bb32b91034b6b83632b6b2b73a32b960611b6064820152608401610446565b6001600160e01b0319811663bc197c8160e01b146113185760405162461bcd60e51b815260040161044690611fbc565b50505050505050565b6040805160018082528183019092526060916000919060208083019080368337019050509050828160008151811061135b5761135b611d98565b602090810291909101015292915050565b6001600160a01b0384163b15610f755760405163f23a6e6160e01b81526001600160a01b0385169063f23a6e61906113b09089908990889088908890600401612004565b6020604051808303816000875af19250505080156113eb575060408051601f3d908101601f191682019092526113e891810190611efa565b60015b6113f757611248611f17565b6001600160e01b0319811663f23a6e6160e01b146113185760405162461bcd60e51b815260040161044690611fbc565b6000818152600183016020526040812054801561151057600061144b600183611d81565b855490915060009061145f90600190611d81565b90508181146114c457600086600001828154811061147f5761147f611d98565b90600052602060002001549050808760000184815481106114a2576114a2611d98565b6000918252602080832090910192909255918252600188019052604090208390555b85548690806114d5576114d5612049565b600190038181906000526020600020016000905590558560010160008681526020019081526020016000206000905560019350505050610472565b6000915050610472565b600081815260018301602052604081205461156157508154600181810184556000848152602080822090930184905584548482528286019093526040902091909155610472565b506000610472565b60608160000180548060200260200160405190810160405280929190818152602001828054801561053457602002820191906000526020600020905b8154815260200190600101908083116115a55750505050509050919050565b80356001600160a01b03811681146115db57600080fd5b919050565b600080604083850312156115f357600080fd5b6115fc836115c4565b946020939093013593505050565b6001600160e01b03198116811461162057600080fd5b50565b60006020828403121561163557600080fd5b81356110b38161160a565b60006020828403121561165257600080fd5b5035919050565b6000815180845260005b8181101561167f57602081850181015186830182015201611663565b81811115611691576000602083870101525b50601f01601f19169290920160200192915050565b6020815260006110b36020830184611659565b634e487b7160e01b600052604160045260246000fd5b601f8201601f191681016001600160401b03811182821017156116f4576116f46116b9565b6040525050565b60006001600160401b03821115611714576117146116b9565b5060051b60200190565b600082601f83011261172f57600080fd5b8135602061173c826116fb565b60405161174982826116cf565b83815260059390931b850182019282810191508684111561176957600080fd5b8286015b84811015611784578035835291830191830161176d565b509695505050505050565b600082601f8301126117a057600080fd5b81356001600160401b038111156117b9576117b96116b9565b6040516117d0601f8301601f1916602001826116cf565b8181528460208386010111156117e557600080fd5b816020850160208301376000918101602001919091529392505050565b600080600080600060a0868803121561181a57600080fd5b611823866115c4565b9450611831602087016115c4565b935060408601356001600160401b038082111561184d57600080fd5b61185989838a0161171e565b9450606088013591508082111561186f57600080fd5b61187b89838a0161171e565b9350608088013591508082111561189157600080fd5b5061189e8882890161178f565b9150509295509295909350565b600080604083850312156118be57600080fd5b82356001600160401b03808211156118d557600080fd5b818501915085601f8301126118e957600080fd5b813560206118f6826116fb565b60405161190382826116cf565b83815260059390931b850182019282810191508984111561192357600080fd5b948201945b8386101561194857611939866115c4565b82529482019490820190611928565b9650508601359250508082111561195e57600080fd5b5061196b8582860161171e565b9150509250929050565b600081518084526020808501945080840160005b838110156119a557815187529582019590820190600101611989565b509495945050505050565b6020815260006110b36020830184611975565b80356001600160401b03811681146115db57600080fd5b600080600080600060a086880312156119f257600080fd5b6119fb866115c4565b9450611a09602087016115c4565b935060408601359250611a1e606087016119c3565b9150611a2c608087016119c3565b90509295509295909350565b60008060408385031215611a4b57600080fd5b611a54836115c4565b915060208301358015158114611a6957600080fd5b809150509250929050565b60008083601f840112611a8657600080fd5b5081356001600160401b03811115611a9d57600080fd5b6020830191508360208260051b8501011115611ab857600080fd5b9250929050565b60008083601f840112611ad157600080fd5b5081356001600160401b03811115611ae857600080fd5b602083019150836020828501011115611ab857600080fd5b60008060008060008060008060a0898b031215611b1c57600080fd5b611b25896115c4565b9750611b3360208a016115c4565b965060408901356001600160401b0380821115611b4f57600080fd5b611b5b8c838d01611a74565b909850965060608b0135915080821115611b7457600080fd5b611b808c838d01611a74565b909650945060808b0135915080821115611b9957600080fd5b50611ba68b828c01611abf565b999c989b5096995094979396929594505050565b60008060408385031215611bcd57600080fd5b611bd6836115c4565b9150611be4602084016115c4565b90509250929050565b60008060008060008060a08789031215611c0657600080fd5b611c0f876115c4565b9550611c1d602088016115c4565b9450604087013593506060870135925060808701356001600160401b03811115611c4657600080fd5b611c5289828a01611abf565b979a9699509497509295939492505050565b600080600080600060a08688031215611c7c57600080fd5b611c85866115c4565b9450611c93602087016115c4565b9350604086013592506060860135915060808601356001600160401b03811115611cbc57600080fd5b61189e8882890161178f565b600060208284031215611cda57600080fd5b6110b3826115c4565b600181811c90821680611cf757607f821691505b602082108103611d1757634e487b7160e01b600052602260045260246000fd5b50919050565b6020808252602e908201527f455243313135353a2063616c6c6572206973206e6f7420746f6b656e206f776e60408201526d195c881bdc88185c1c1c9bdd995960921b606082015260800190565b634e487b7160e01b600052601160045260246000fd5b600082821015611d9357611d93611d6b565b500390565b634e487b7160e01b600052603260045260246000fd5b600060018201611dc057611dc0611d6b565b5060010190565b60008219821115611dda57611dda611d6b565b500190565b60208082526025908201527f455243313135353a207472616e7366657220746f20746865207a65726f206164604082015264647265737360d81b606082015260800190565b6020808252602a908201527f455243313135353a20696e73756666696369656e742062616c616e636520666f60408201526939103a3930b739b332b960b11b606082015260800190565b604081526000611e816040830185611975565b8281036020840152611e938185611975565b95945050505050565b6001600160a01b0386811682528516602082015260a060408201819052600090611ec890830186611975565b8281036060840152611eda8186611975565b90508281036080840152611eee8185611659565b98975050505050505050565b600060208284031215611f0c57600080fd5b81516110b38161160a565b600060033d1115611f305760046000803e5060005160e01c5b90565b600060443d1015611f415790565b6040516003193d81016004833e81513d6001600160401b038160248401118184111715611f7057505050505090565b8285019150815181811115611f885750505050505090565b843d8701016020828501011115611fa25750505050505090565b611fb1602082860101876116cf565b509095945050505050565b60208082526028908201527f455243313135353a204552433131353552656365697665722072656a656374656040820152676420746f6b656e7360c01b606082015260800190565b6001600160a01b03868116825285166020820152604081018490526060810183905260a06080820181905260009061203e90830184611659565b979650505050505050565b634e487b7160e01b600052603160045260246000fdfea2646970667358221220381f0403cca0786c8822717f99087f188a611732259f50836099ccf224e0ab1a64736f6c634300080f0033",
  "linkReferences": {},
  "deployedLinkReferences": {}
}